S01800004153502D4C46432D4649524D574152452E737265639C
S1130000F9C000001CC100001AC1000018C10000A2
S113001016C1000014C1000012C1000010C100008C
S11300200EC100000CC100000AC1000008C100009C
S113003006C1000004C1000002C1000000C10000AC
S1130040FEC00000FCC00000FAC00000F8C00000C0
S1130050F6C00000F4C00000F2C00000F0C00000D0
S1130060EEC00000ECC00000EAC00000E8C00000E0
S1130070E6C00000E4C00000E2C00000E0C00000F0
S1130080DEC00000DCC00000DAC00000D8C0000000
S1130090D6C00000D4C00000D2C00000D0C0000010
S11300A0CEC00000CCC00000CAC00000C8C0000020
S11300B0C6C00000C4C00000C2C00000C0C0000030
S11300C0BEC00000BCC00000BAC00000B8C0000040
S11300D0B6C00000B4C00000B2C00000B0C0000050
S11300E0AEC00000ACC00000AAC00000A8C0000060
S11300F0A6C00000A4C00000A2C00000A0C0000070
S11301009EC000009CC0000060C10000F9C1000056
S113011096C0000094C0000092C0000090C000008F
S11301208EC000008CC000008AC0000088C000009F
S113013086C0000084C0000082C0000080C00000AF
S11301407EC000007CC000007AC0000078C00000BF
S113015076C0000074C0000072C0000070C00000CF
S11301606EC000006CC000006AC0000068C00000DF
S113017066C0000064C0000062C0000060C00000EF
S11301805EC000005CC000005AC0000058C00000FF
S113019056C0000054C0000052C0000050C000000F
S11301A04EC000004CC000004AC0000048C000001F
S11301B046C0000044C0000042C0000040C000002F
S11301C03EC000003CC000003AC0000038C000003F
S11301D036C0000034C0000032C0000030C000004F
S11301E02EC000002CC000002AC0000028C000005F
S11301F026C0000011241FBECFEFDFE3DEBFCDBF5A
S113020000E00CBF18BE19BE1ABE1BBE14E2A0E06B
S1130210B0E2E0E4F7E400E00BBF02C007900D9207
S1130220A032B107D9F71BBE16E2A0E2B4E201C0C6
S11302301D92A839B107E1F7E2D30C949E23E0CED6
S1130240FC019FB7F894E059FF4F609580818623A5
S113025080839FBF0895FC019FB7F894E059FF4F36
S11302608081862B80839FBF0895FF920F931F93F5
S1130270CF93DF938B01833048F4E82FF0E0EE0F47
S1130280FF1FE75EFB4DC081D18102C0CCE5D4E005
S1130290FFB6F8948091700083FF06C080E090E080
S11302A068E0CEDF21E001C020E0F80180818C7F8E
S11302B0888381818983828193818A839B8322239A
S11302C021F080E090E068E0C6DFFFBEDF91CF91CF
S11302D01F910F91FF9008951F93CF93DF93EC012B
S11302E01FB7F8948091700083FF06C080E090E00F
S11302F068E0A6DF21E001C020E08881E0E4F4E0CA
S11303008183898180878A8181878B819C81848391
S113031095838D819E8186839783222321F080E0BB
S113032090E068E098DF1FBFDF91CF911F9108959F
S1130330EF92FF920F931F93CF93DF93F82E8B01CD
S113034082E08F1548F0EF2DF0E0EE0FFF1FE75E1F
S1130350FB4DC081D18102C0CCE5D4E0EFB6F89466
S113036080E090E068E06CDF9FB7F8948091892684
S11303708F5F809389269FBFF8018081888381E005
S113038090E002C0880F991FFA94E2F7909120241C
S1130390982B90932024EFBEDF91CF911F910F9162
S11303A0FF90EF90089560E070E0CB010895E0EADB
S11303B0F0E082818760828378940895E0EAF0E037
S11303C08281887F8283F89408951F920F920FB6DA
S11303D00F9208B60F9209B60F920BB60F92112422
S11303E02F933F934F935F936F937F938F939F9339
S11303F0AF93BF93EF93FF93809121249091222494
S11304008330910534F4019680932124909322241F
S113041001C0D4DF80912124909122246EE876E2F9
S11304200E94A71D8EE896E20E942723FF91EF9178
S1130430BF91AF919F918F917F916F915F914F91F8
S11304403F912F910F900BBE0F9009BE0F9008BEE5
S11304500F900FBE0F901F901895E0E2F6E0808198
S113046080648083808188608083808184608083CD
S113047080818062808380818061808380E090E2DB
S11304800E941C230E94541F86E190E20E941C23B8
S11304900C94631F90E00AC02FEF33EC49E0215025
S11304A030404040E1F700C000009F5F9817A1F77B
S11304B00895E0ECF7E085E08683858308958091D4
S11304C0232490912424282F2058E0EAF6E0248362
S11304D0848301968093232490932424803191056E
S11304E021F4109223241092242480912324E0EAFE
S11304F0F6E08483982F90589483805584830895DC
S11305001F920F920FB60F9208B60F9209B60F9270
S11305100BB60F9211242F933F934F935F936F93D6
S11305207F938F939F93AF93BF93EF93FF938091A8
S1130530212490912224009711F0C1DFBADFFF91AA
S1130540EF91BF91AF919F918F917F916F915F9147
S11305504F913F912F910F900BBE0F9009BE0F90BA
S113056008BE0F900FBE0F901F9018958330910511
S1130570C9F08430910530F4009759F08230910528
S113058039F50BC08630910591F08730910501F55E
S113059013C080914800817F12C080914800817F00
S11305A084600DC080914800817F866008C080917E
S11305B04800817F8C6003C0809148008E608093E6
S11305C04800809148008160809348008895089590
S11305D08FE290E20C942B236115710579F5843632
S11305E0A9F0853624F4833609F057C006C0853651
S11305F0A9F0863609F051C019C080914006886080
S113060080934006E0EAF8E0DA0158C08091600681
S1130610886080936006E0EAF9E0F6CF8091800676
S1130620886080938006E0EAFAE0EECF8091A0062D
S113063088608093A006E0EAFBE0E6CF61307105B4
S113064079F5843691F085361CF4833631F505C08E
S1130650853699F0863609F518C080914006806881
S113066080934006E0EBF8E0CFCF8091600680688D
S113067080936006E0EBF9E0C7CF80918006806844
S113068080938006E0EBFAE0BFCF8091A0068068FB
S11306908093A006E0EBFBE0B7CF81E490E202C0D8
S11306A08EE490E20C942B238083818185FD03C02A
S11306B0818186FFFDCF8181806481838D91882330
S11306C099F70895843661F0853691F08336C1F444
S11306D080914006806B80934006E0ECF8E014C003
S11306E080916006806B80936006E0ECF9E00CC0BA
S11306F080918006806B80938006E0ECFAE004C071
S113070081E490E20C942B23637060656083089508
S1130710843651F0853629F0833651F4E0ECF8E064
S113072005C0E0ECFAE002C0E0ECF9E0DB010BC04C
S113073081E490E20C942B238383828187FFFDCF95
S11307408281806882838D918823B1F70895AF9266
S1130750BF92CF92DF92EF92FF920F931F93CF93AA
S1130760DF93CDB7DEB72A97CDBFDEBF5B016C0147
S113077020E030E080E090E0EE24FF2437C0542FE6
S113078050535A3058F4E1E0F0E0EC0FFD1FE80F4D
S1130790F91F4083019621E030E028C0211531057E
S11307A029F1403219F521E030E02C0F3D1F820F72
S11307B0931FFC0110828701000F111F0A0D1B1DDE
S11307C0C9010E948C1DF801808391830894E11C67
S11307D0F11CFE01319680E090E0119201968A307E
S11307E09105D9F721E030E080E090E0F6014191F5
S11307F06F01442321F6009779F08701000F111F40
S11308000A0D1B1DCE0101960E948C1DF8018083E8
S113081091830894E11CF11CC7012A96CDBFDEBF69
S1130820DF91CF911F910F91FF90EF90DF90CF90C8
S1130830BF90AF90089588ED84BF82E0809350000C
S11308408091510081FFFCCF88ED84BF81E08093CB
S113085040008FECE0EAFBE08683089588ED84BFD6
S113086081E0809350008091510080FFFCCF88ED9F
S113087084BF109240008CE0E0EAFBE08683089598
S113088088ED84BF84E0809350008091510082FF02
S1130890FCCF88ED84BF82E08093400008958130CE
S11308A0910541F08130910520F08230910521F4C9
S11308B002C0D4CFC0CFE4CF8FE590E20C942B23B9
S11308C00F931F93CF93DF93CDB7DEB76497CDBF5C
S11308D0DEBFDC010C9111961C911197212F2D5331
S11308E02E3308F010E0002371F1BE016F5F7F4FDB
S11308F02EDF023609F443C003369CF4043509F4B0
S11309005EC005353CF40F3409F46EC0033509F0BC
S11309106EC05CC0083509F45EC0013609F067C0DA
S113092017C0083709F448C009373CF40C3609F4F9
S113093040C0033709F05BC053C0093791F10A374F
S113094009F055C034C086E790E20E941C234FC0D2
S1130950E0ECF7E085E08683AFE3BFE11197F1F7C0
S113096000C000008583EFE3FFE13197F1F700C099
S1130970000080916806992787FD909509C08091B1
S113098000068E7F8093000680910806817090E0B7
S113099066E676E20E94A71D86E696E20E94272379
S11309A026C0109221241092222401DD20C006DDED
S11309B01EC00E942C1FECCF84E090E0E9CF698137
S11309C07A81812F43E850E207DE11C069817A8180
S11309D0812F78DE0CC0812F63E870E299DE07C0B6
S11309E089819A81C3DD03C089819A8158DF649625
S11309F0CDBFDEBFDF91CF911F910F910895CF93AB
S1130A00DF93CDB7DEB7C458D040CDBFDEBF13DF10
S1130A10E0E4F0E011820E94F5228EE890E20E9468
S1130A201C23E0EAF6E08FEF8093A00690E496831F
S1130A3080E9868380E285830FE00683968390E1D4
S1130A409583868380E8858386EA90E20E941C234E
S1130A50E0ECF7E00093C0078AE0868385E08583B5
S1130A60109260061092800687EC90E20E941C238C
S1130A70F4DC8AE00FDD8AE00DDD8AE00BDD8AE03C
S1130A8009DD8AE007DD80E090E06FE371E040E09B
S1130A9050E02FEE30E000E018EFEE24FF240E9437
S1130AA0482281EE90E20E941C23E0E0F6E080916F
S1130AB009068C7F8160818780910906837F846029
S1130AC08187809110068160808B80911006897FD8
S1130AD0808B809111068160818B80911106897FC2
S1130AE0818B81E0828782E083878FEF90E20E948E
S1130AF01C238091700083FF06C080E090E068E0D2
S1130B009FDB81E001C080E09FE0E0EEF6E09483AB
S1130B109FEF9093E00620EF209300079093200727
S1130B209DE090934004882321F080E090E068E009
S1130B3092DB8091252480788F638093252480E044
S1130B4090E88093272490932824809126248C7FF6
S1130B508093262480912924807F8E608093292489
S1130B608FEB80932A248FE780932B2480E490E0FA
S1130B7080932C2490932D2480E991E080932E245B
S1130B8090932F2489E294E2A7DB83E065E274E288
S1130B906CDB83E065E274E2CBDB80E291E20E94ED
S1130BA01C2380915D0487FFFCCF8CE391E20E94BB
S1130BB01C2380E090E00E94111C009719F483E547
S1130BC091E202C08CE791E20E941C2380E090E055
S1130BD040E050E060E870E00E941B1D009719F4AB
S1130BE08BEA91E202C087ED91E20E941C2389E026
S1130BF092E20E941C2384E292E20E941C2380E081
S1130C000E94C0188AE492E20E941C2380E060E300
S1130C1074E20E94C511009799F18CE692E20E9459
S1130C201C238E010F5F1F4FC8016DE872E242E082
S1130C300E94E31188E992E20E941C2300D000D0B4
S1130C40EDB7FEB73196ADB7BEB711960D931C93B1
S1130C50129789EB92E28283938385E090E0848308
S1130C6095830E94D0158DB79EB706968DBF9EBF03
S1130C7080EC92E20E941C23C8010E94741504C0F7
S1130C8081EE92E20E94272384E093E20E941C23D7
S1130C9081E293E20E941C2300E010E00E941523ED
S1130CA0282F30E02D30310519F00436110579F480
S1130CB0E1E2F0E0EC0FFD1FE00FF11F108284E28F
S1130CC093E20E941C23CE018196FADDE1CF283005
S1130CD0310531F40115110561F00150104009C0CE
S1130CE0E1E2F0E0EC0FFD1FE00FF11F80830F5FE6
S1130CF01F4F0E940423D2CFCF93DF939C01FB01AB
S1130D00DC01CA0105C0C191D191CD93DD93029755
S1130D1082309105C0F7CA018E7FF901E80FF91FEF
S1130D20860F971F40FF03C0DC018C918083DF9105
S1130D30CF910895FC0103C0619341505040411587
S1130D405105D1F708956F927F928F929F92AF923F
S1130D50BF92CF92DF92EF92FF920F93CF93DF93E4
S1130D60EC018C81882309F44AC0CAA8DBA8ECA84A
S1130D70FDA886E3882E912C8C0E9D1E8981B401DA
S1130D80A701960101E00E94DD190097A9F51C82D4
S1130D904EA15FA168A579A5C416D506E606F70697
S1130DA070F18E8D9F8DA8A1B9A1840F951FA61FE8
S1130DB0B71FC816D906EA06FB0608F56B80772428
S1130DC0AA24BB2412C08E8D9F8DA8A1B9A1C80EE0
S1130DD0D91EEA1EFB1E8981B401A701960101E018
S1130DE00E94DD190894A11CB11CC3018A199B0936
S1130DF08230910540F703C081E090E002C080E0BA
S1130E0090E0DF91CF910F91FF90EF90DF90CF9022
S1130E10BF90AF909F908F907F906F9008950F93A5
S1130E201F93CF93DF93EC018EDF9C01009709F0B1
S1130E305BC08881833009F04BC08D81882309F41D
S1130E4047C01AAA1BAA1CAA1DAA8E010A5C1F4F1E
S1130E50C80160E070E040E052E06CDFFE01EC5C51
S1130E60FD4F85E59AEA8083918382E592E5A1E6C8
S1130E70B1E48EAB9FABA8AFB9AFFE01E65EFD4F08
S1130E8082E792E7A1E4B1E680839183A283B383EE
S1130E90FE01E25EFD4F8E859F85A889B989808316
S1130EA09183A283B383FE01EE5DFD4F8A859B850A
S1130EB0AC85BD8580839183A283B3832A893B89D2
S1130EC04C895D898981B80101E00E94DD191D8288
S1130ED0898160E040E050E00E944A1A21E030E05D
S1130EE0009711F420E030E0C901DF91CF911F9108
S1130EF00F910895DC010097E1F0ED91FC911197B9
S1130F003097B9F080818823A1F026813781129629
S1130F108D919C9113972817390771F481810E9450
S1130F20881980FF03C083E090E0089580E090E09A
S1130F30089589E090E0089589E090E008950F9382
S1130F40CF93DF93EC019A01AB01BC016A5C7F4F44
S1130F50898101E00E948F19009751F5FE01EC5C34
S1130F60FD4F808191812AEA8535920719F5FE01AA
S1130F70E459FF4F80819181A281B381B07086349E
S1130F8021E4920724E5A20720E0B207A9F0C8579C
S1130F90DF4F488159816A817B81707081E04634DA
S1130FA091E4590794E5690790E0790731F404C0A6
S1130FB083E003C082E001C080E0DF91CF910F9114
S1130FC008952F923F924F925F926F927F928F92E9
S1130FD09F92AF92BF92CF92DF92EF92FF920F93C4
S1130FE01F93CF93DF93CDB7DEB72E97CDBFDEBF70
S1130FF0DC01C42EED91FC9111970081112707FDAE
S11310001095005310400A30110540F481818A3351
S113101029F43296ED93FC93119703C00091742642
S113102010E0DB011D921C9211970230110508F0AB
S113103050C2F801EE0FFF1FE059F94D20813181B4
S11310402D873E872115310509F446C22D933C9323
S1131050D9018C91882361F011968C910E94881992
S113106080FD06C0CC2009F43AC282FD3EC237C2DC
S1131070ED85FE8510820183802F0E94C01880FDBB
S113108031C2CC2011F082FD30C28D859E8540E0B6
S113109050E0BA0154DF8130F1F4ED85FE85E8506B
S11310A0FE4F8081882309F426C22D853E85245075
S11310B03E4FD9018D919D910D90BC91A02D8983B6
S11310C09A83AB83BC838D859E8549815A816B81CC
S11310D07C8135DF04C019821A821B821C82833012
S11310E009F406C2882309F006C2ED85FE85EF5B8C
S11310F0FF4F80819181B2E080309B0709F0FBC1F2
S1131100ED85FE85E45BFF4F808191819C0140E089
S113111050E02D833E834F835887211531054105C7
S1131120510571F42D853E85265A3F4FD9018D9185
S11311309D910D90BC91A02D8D839E83AF83B88724
S11311402D813E814F815885AD85BE855E962D9358
S11311503D934D935C939197FD01EA5BFF4F408172
S113116013964C931397842F8150823008F0C3C197
S1131170FD01ED5BFF4F008112960C931297002343
S113118009F4B9C1202F30E0C901019782239323C8
S1131190009709F0B0C1FD01E95BFF4F2080318069
S11311A018962D923C921997C1018F7090700097F8
S11311B009F0A1C1FD01E75BFF4F80809180AA2463
S11311C0BB2481149104A104B10439F4FD01EA5A49
S11311D0FF4F80809180A280B380ED85FE85EC5B1B
S11311E0FF4FC080D180C114D10409F484C1242FDD
S11311F030E040E050E06D817E818F8198850E94CF
S1131200362369877A878B879C872601662477240F
S11312106101E4E0D694C794EA95E1F7EE24FF2453
S1131220C40CD51CE61CF71CC60ED71EE81EF91EFE
S11312308C149D04AE04BF0408F45DC1C501B4015F
S11312406C197D098E099F09202F30E040E050E0A1
S11312500E947C2389019A0101151105210531059C
S113126009F449C1063FBFE01B07B0E02B07B0E01B
S11312703B0758F0063FEFEF1E07E0E02E07E0E0E3
S11312803E0730F462E0862E05C08824839402C0B1
S113129053E0852E0E5F1F4F2F4F3F4FAD85BE8508
S11312A05A960D931D932D933C935D9789819A8152
S11312B0AB81BC81ED85FE8582A393A3A4A3B5A3D2
S11312C0AC01BD01440D551D661D771D46A357A3F2
S11312D060A771A789819A81AB81BC818C0D9D1D0A
S11312E0AE1DBF1D86A797A7A0ABB1ABF3E08F16C9
S11312F0E1F42114310409F0FEC0ED85FE85EE59B8
S1131300FF4F80819181A281B381ED85FE8582A703
S113131093A7A4A7B5A7D901C80142E0880F991FD4
S1131320AA1FBB1F4A95D1F72BC02114310409F41D
S1131330E2C089859A85AB85BC85840F951FA61F5D
S1131340B71FED85FE8582A793A7A4A7B5A7D901EA
S1131350C801880F991FAA1FBB1FF2E08F1681F0E6
S1131360800F911FA21FB31FB695A79597958795D8
S11313700170107020703070800F911FA21FB31F76
S113138081509E4FAF4FBF4F29E0B695A7959795D3
S113139087952A95D1F72D813E814F81588528174D
S11313A039074A075B0708F4A6C08FEF9FEFDC01FB
S11313B0ED85FE8586879787A08BB18B1286138671
S11313C014861586B3E08B1609F066C01582EA59B7
S11313D0FF4F0081118120E030E089819A81AB8147
S11313E0BC81080F191F2A1F3B1FAD85BE8552966D
S11313F00D931D932D933C935597BD016A5C7F4FCC
S113140011968C91A901980101E00E948F1900970F
S113141009F042C0ED85FE85EC5CFD4F8081918131
S1131420BAEA85359B07C1F5ED85FE8586A997A99E
S1131430A0ADB1AD8235F2E59F07F1E6AF07F1E467
S1131440BF0751F5ED85FE85E65EFD4F80819181F4
S1131450A281B381823722E7920721E4A20721E621
S1131460B207D1F4ED85FE85EE5DFD4F808191815B
S1131470A281B381ED85FE8582879387A487B58792
S1131480E25EFD4F80819181A281B381ED85FE856D
S113149086879787A08BB18BAD85BE858C92809112
S11314A075269091762601968093752690937626DC
S11314B016968D939C931797FD0112AA13AA14AA4A
S11314C015AA148256961D921D921D921C9259972C
S11314D006C08BE090E011C08CE090E00EC080E08C
S11314E090E00BC083E090E008C08AE090E005C083
S11314F081E090E002C08DE090E02E96CDBFDEBF8B
S1131500DF91CF911F910F91FF90EF90DF90CF90DB
S1131510BF90AF909F908F907F906F905F904F900F
S11315203F902F900895CF92DF92EF92FF920F9306
S1131530CF93DF93EC016A017B018AA99BA9ACA933
S1131540BDA9481759076A077B0799F0CE01FBDB51
S1131550009791F4BE016A5C7F4F8981A7019601CF
S113156001E00E948F19009739F4CAAADBAAECAAF9
S1131570FDAA80E090E002C081E090E0DF91CF918D
S11315800F91FF90EF90DF90CF9008950F931F93EA
S1131590CF93DF93EC01DB01CA010297A109B109E2
S11315A04A8D5B8D6C8D7D8D425050406040704003
S11315B084179507A607B70798F42A8130E040E01E
S11315C050E0BC01CD010E9436238B019C018EA505
S11315D09FA5A8A9B9A9080F191F2A1F3B1F03C05B
S11315E000E010E09801B801C901DF91CF911F918B
S11315F00F910895BF92CF92DF92EF92FF920F93D3
S11316001F93CF93DF93EC016A017B0142305105B4
S11316106105710508F4A4C08A8D9B8DAC8DBD8DC8
S1131620481759076A077B0708F09AC088818230F7
S113163009F456C0833009F46EC0813009F08CC0BF
S11316408A01169507950C0D1D1DA801452F5527D8
S1131650469560E070E08EA19FA1A8A5B9A5480FAA
S1131660591F6A1F7B1FCE015EDF009709F074C00B
S1131670F801F170EC0FFD1FB6A80F5F1F4FA80112
S1131680452F5527469560E070E08EA19FA1A8A53F
S1131690B9A5480F591F6A1F7B1FCE0144DF00976D
S11316A009F05AC06B2D70E0F801F170EC0FFD1FCA
S11316B096A980E0682B792B81E0C822DD24C1142F
S11316C0D10439F054E0769567955A95E1F78B018A
S11316D01FC08B0120E030E01F702070307044C0C8
S11316E077276F2D5E2D4D2D8EA19FA1A8A5B9A59D
S11316F0480F591F6A1F7B1FCE0115DF009761F544
S1131700F601EE0FFF1FF170EC0FFD1F06A917A9DC
S113171020E030E029C027E07695679557954795F6
S11317202A95D1F78EA19FA1A8A5B9A5480F591F45
S11317306A1F7B1FCE01F7DE009771F4F601EE0FEE
S1131740FF1FEE0FFF1FF170EC0FFD1F06A917A975
S113175020AD31AD3F7008C00FEF1FEF980104C0FA
S113176001E010E020E030E0B801C901DF91CF9141
S11317701F910F91FF90EF90DF90CF90BF9008954D
S1131780EF92FF920F931F93CF93DF938C017B0112
S1131790DC0114966D937C93159716964D915D918B
S11317A06D917C911997413051056105710509F4DA
S11317B093C0ED91FC91828D938DA48DB58D4817C6
S11317C059076A077B0708F087C041155105610571
S11317D0710531F58081833049F442A553A564A590
S11317E075A54115510561057105D1F4D8011A9605
S11317F01D921D921D921C921D9780859185E8165D
S1131800F90608F069C0C70124E0969587952A95E2
S1131810E1F7A0E0B0E042A553A564A575A53DC0DD
S1131820C281D0E084E0CC0FDD1F8A95E1F720C0AF
S1131830E1DEAB01BC014F3FFFEF5F07FFEF6F0736
S1131840FFEF7F0709F445C042305105610571057A
S113185008F442C0D801ED91FC91828D938DA48D42
S1131860B58D481759076A077B07B0F5EC1AFD0ACE
S1131870F80180819181EC16FD06D0F642875387EA
S11318806487758783DEAB01BC01C701C4E096950C
S11318908795CA95E1F7A0E0B0E0840F951FA61FD5
S11318A0B71FF80186879787A08BB18B80819181C0
S11318B0C696BFE0EB22FF24B5E0EE0CFF1CBA9500
S11318C0E1F78E0D9F1DF801828B938B80E090E0F1
S11318D005C081E090E002C082E090E0DF91CF910A
S11318E01F910F91FF90EF9008958F929F92AF9266
S11318F0BF92CF92DF92EF92FF920F931F93CF93F9
S1131900DF93EC016A017B01480159014230510522
S11319106105710508F4BEC08A8D9B8DAC8DBD8DAB
S1131920481759076A077B0708F0B4C088818230DA
S113193009F462C0833009F47AC0813009F0A5C08B
S11319408A0116950795040F151FA801452F5527E1
S1131950469560E070E08EA19FA1A8A5B9A5480FA7
S1131960591F6A1F7B1FCE01DEDD9C01009709F021
S11319708EC0F801F17081E0C822DD24EC0FFD1F58
S1131980C114D10439F096A99F70882D8295807F67
S1131990892B01C0882D86AB0F5F1F4F81E08C839C
S11319A0A801452F5527469560E070E08EA19FA1C0
S11319B0A8A5B9A5480F591F6A1F7B1FCE01B3DD27
S11319C09C01009709F063C0F801F170EC0FFD1F52
S11319D0C114D10451F0D501C40114E0B695A79502
S11319E0979587951A95D1F705C086A9807F992D7B
S11319F09F70892B86AB4BC0452F562F672F7727B7
S1131A008EA19FA1A8A5B9A5480F591F6A1F7B1FC6
S1131A10CE0189DD9C010097D1F5F601EE0FFF1F81
S1131A20F170F696EC0FFD1F8082918230C0E7E0E2
S1131A307695679557954795EA95D1F78EA19FA11D
S1131A40A8A5B9A5480F591F6A1F7B1FCE016BDDDE
S1131A509C010097E1F4F601EE0FFF1FEE0FFF1F4C
S1131A60F170F696EC0FFD1F80819181A281B38104
S1131A7080709070A070B07F88299929AA29BB2909
S1131A8080839183A283B38302C022E030E081E0AB
S1131A908C8302C022E030E0C901DF91CF911F9115
S1131AA00F91FF90EF90DF90CF90BF90AF909F90F9
S1131AB08F9008954F925F926F927F928F929F9230
S1131AC0AF92BF92CF92DF92EF92FF920F931F9348
S1131AD0CF93DF93EC012A013B01411551056105C8
S1131AE0710599F48A849B84AC84BD848114910427
S1131AF0A104B10401F18A8D9B8DAC8DBD8D881636
S1131B009906AA06BB06B8F41BC074DD8B019C01C0
S1131B10623071058105910508F491C08A8D9B8D11
S1131B20AC8DBD8D081719072A073B0708F48BC035
S1131B305301420105C051E0852E912CA12CB12CFA
S1131B40750164010894C11CD11CE11CF11C8A8D2F
S1131B509B8DAC8DBD8DC816D906EA06FB0660F0D8
S1131B6022E082169104A104B10408F461C042E0A9
S1131B70C42ED12CE12CF12CCE01B701A6013ADD03
S1131B808B019C016115710581059105A9F00F3F39
S1131B908FEF18078FEF28078FEF380709F453C02A
S1131BA0013011052105310509F44DC0C814D904CB
S1131BB0EA04FB0439F63CC08C2CBD2CAE2C9F2CC3
S1131BC0CE01A601B7010FEF1FEF2FEF3FE08DDE2F
S1131BD0009739F5411451046104710441F0CE01B8
S1131BE0B301A2018601970180DE0097D1F48A86B1
S1131BF0BB86AC869D868E859F85A889B9898F3FD3
S1131C002FEF92072FEFA2072FEFB207A9F001974A
S1131C10A109B1098E879F87A88BB98B81E08D8339
S1131C200BC08130910559F40FEF1FEF98010BC0E1
S1131C3000E010E0980107C09701860104C001E0AC
S1131C4010E020E030E0B801C901DF91CF911F918D
S1131C500F91FF90EF90DF90CF90BF90AF909F9047
S1131C608F907F906F905F904F9008958F929F9286
S1131C70AF92BF92CF92DF92EF92FF920F931F9396
S1131C80CF93DF938C01EB01DC011496AD90BC90F3
S1131C9015970894A11CB11CA114B10409F4F6C051
S1131CA01E968D919D910D90BC91A02D0097A1053C
S1131CB0B10509F4EBC02FE0822E912C8A209B20E1
S1131CC08114910409F0CBC00196A11DB11DF80146
S1131CD086879787A08BB18B4285538564857585EC
S1131CE00190F081E02D411551056105710539F42C
S1131CF080859185A816B90608F0C8C0B0C0828155
S1131D0090E001979501A4E036952795AA95E1F70F
S1131D1082239323009709F0A2C0CF016BDC6B01EF
S1131D207C01623071058105910508F4B5C08FEF1F
S1131D30C8168FEFD8068FEFE8068FEFF80609F480
S1131D40AEC0D801ED91FC91828D938DA48DB58D9B
S1131D50C816D906EA06FB0608F470C0209709F4F1
S1131D6095C0D8011A964D915D916D917C911D9706
S1131D70CF01A0DE6B017C01611571058105910520
S1131D8009F487C0613071058105910509F484C0A7
S1131D906F3FEFEF7E07EFEF8E07EFEF9E0709F43B
S1131DA07EC0D8018D919C910E94A306009709F0F2
S1131DB076C0F80180819181C69660E070E040E0D1
S1131DC052E00E949A06D801CD91DC91CE01B70170
S1131DD0A601DCDBDC01CB018AAB9BABACABBDABBE
S1131DE0C0E0D1E018C0D483F801808191810E94C1
S1131DF0A306009709F053C0D801ED91FC9182A984
S1131E0093A9A4A9B5A90196A11DB11D82AB93AB59
S1131E10A4ABB5ABCF5FD801ED91FC911197828152
S1131E20C81708F382A993A9A4A9B5A98C1B910981
S1131E30A109B10982AB93ABA4ABB5ABF801C286DF
S1131E40D386E486F58680819181B701A6019EDB65
S1131E50DC01CB01F80186879787A08BB18BD80171
S1131E601496AD92BC9215978D919C911197C6963C
S1131E7065E0880C991C6A95E1F7880D991D5296C6
S1131E808D939C93539780E090E00BC084E090E0A6
S1131E9008C087E090E005C082E090E002C081E0E5
S1131EA090E0DF91CF911F910F91FF90EF90DF9021
S1131EB0CF90BF90AF909F908F9008959F92AF92D4
S1131EC0BF92CF92DF92EF92FF920F931F93CF9323
S1131ED0DF937C018B01DB018C918F3211F08C3507
S1131EE041F40F5F1F4FE7011E821F821886198677
S1131EF00CC0D701ED91FC9186899789A08DB18D95
S1131F00E7018E839F83A887B987F8018081803297
S1131F1058F4C70160E070E033DC9C01D7015296AD
S1131F201D921C9253974EC1B5E09B2EF8018F0170
S1131F30808131968F32D9F38C35C9F3F701C48986
S1131F40D589CE0160E270E04BE050E00E949A0631
S1131F50D8018C918E3209F5888311968C91119752
S1131F608E3239F4898312968C911297E3E0F0E073
S1131F7002C0E2E0F0E08F3229F08C3519F08132B2
S1131F8008F01BC10E0F1F1F813210F484E201C040
S1131F9080E28B8724C1B50108C040E050E060E0D6
S1131FA070E0A8E0CA2ED12C30E0F801E60FF71F4C
S1131FB020815B010894A11CB11C213208F464C087
S1131FC02F3209F463C02C3509F460C02E3219F0A5
S1131FD04C155D0580F0B8E0CB16D10409F0EDC0D6
S1131FE02E3209F0EAC0330F330F48E050E0FBE033
S1131FF0CF2ED12CD0CF27FD3360822F81588F3143
S113200018F08F558D31F8F4F801EA0DFB1DA0810D
S11320108A2F80548F3320F080548D3708F0CDC040
S1132020C60101974817590708F0C7C0E2E0AE2E71
S1132030B12CA60EB71EFE01E40FF51F2083A18369
S11320404E5F5F4FA8CF622F70E0E7E2F3E2819129
S1132050882339F0992787FD909586179707B9F754
S1132060ACC0822F81548A3110F4326006C0822FB2
S113207081568A3110F431602052FE01E40FF51FBD
S113208020834F5F5F4F87CF64E001C060E041155C
S1132090510509F492C08881853E09F49882E8E0EC
S11320A0CE16D10411F4330F330F832F90E09C012B
S11320B0237030702130310509F460618C709070A8
S11320C08430910509F468600A0D1B1D6B8787C075
S11320D0D7011E964D915D916D917C9151978D9193
S11320E09C9121DA9C010097D1F4E701EA89FB89EC
S11320F08081882391F0838583FD0AC0AC89BD89E2
S11321008CE090E0019759F051914D915417D1F31F
S1132110C70160E070E0AADD66C024E030E0D701CA
S11321205496ED91FC915597438521153105D1F0D5
S11321302430310509F046C050E0CA018470907023
S113214045FF0DC0E7011E821F82188619861A8A70
S11321501B8A009709F4EACE20E030E033C00097F0
S113216079F130C042FD2EC0F701A289B3891B96D4
S11321708C911B9784FF24C05A964D915C915B9778
S113218060E070E00190F081E02D8081833069F49B
S113219054968D919C915597A0E0B0E0DC0199276D
S11321A08827482B592B6A2B7B2BD70116964D93E6
S11321B05D936D937C931997B9CE26E030E002C00D
S11321C025E030E0C901DF91CF911F910F91FF907D
S11321D0EF90DF90CF90BF90AF909F900895C7018C
S11321E060E070E0CDDA9C01009709F471CF97CFDD
S11321F0CF93DF93EC014E855F8568897989888167
S1132200998191D9009769F4EA89FB892081253E57
S113221041F0222331F0CE0161E070E027DD009728
S113222051F3DF91CF9108950F931F93CF93DF93D1
S1132230EC0160E070E0A4DA8C01009719F5CE019E
S1132240D7DF8C010097F1F44E855F856889798921
S11322508881998168D98C010097A1F48A899B8926
S113226060E070E040E250E00E949A066C897D894B
S11322708A899B894BE050E00E947C06E881F981C1
S113228081E08483C801DF91CF911F910F9108955C
S11322907F928F929F92AF92BF92CF92DF92EF92F2
S11322A0FF920F931F93CF93DF93EC016A017B019D
S11322B0423051056105710508F457C08A8D9B8D24
S11322C0AC8DBD8D481759076A077B0708F04DC0D0
S11322D03AC0CE01B701A6018DD94B015C0161154D
S11322E0710581059105D9F181E088169104A10455
S11322F0B104D9F12FEF82162FEF92062FEFA20629
S11323002FEFB20679F1CE01B701A60100E010E08B
S11323109801EBDA009759F58E859F85A889B989CC
S11323208F3F2FEF92072FEFA2072FEFB20741F055
S11323300196A11DB11D8E879F87A88BB98B7D82C5
S11323407501640102C0772473948A8D9B8DAC8DD2
S1132350BD8DC816D906EA06FB0608F4BACF80E09C
S113236090E005C081E090E002C082E090E0DF915F
S1132370CF911F910F91FF90EF90DF90CF90BF907E
S1132380AF909F908F907F9008958230C8F490E032
S1132390880F991FFC01E059F94D0190F081E02D5F
S11323A0309709F010826115710511F0FB0110825C
S11323B08059994DFC016083718380E090E0089519
S11323C08BE090E008952F923F924F925F926F922C
S11323D07F928F929F92AF92BF92CF92DF92EF92B1
S11323E0FF921F93CF93DF93CDB7DEB7A497CDBFF2
S11323F0DEBF4C016BA37CA3009709F406C1DC018A
S11324001D921C92142F1F714E71CE018396BE0132
S1132410635F7F4F0E94E1071C01009709F0F8C039
S1132420CE01019689A39AA36BA17CA1CE010D963E
S113243045DD9C01AF8CB8A0009729F4A114B10428
S113244011F426E030E0412F50E0CA018C71907005
S1132450009709F472C02115310579F02430310553
S113246021F4CE010D96E0DE9C01AF8CB8A02115BD
S1132470310509F08FC0186007C0F50183858171AB
S113248009F0E2C012FDDAC013FF64C00E94D30158
S1132490DC01CB01F50186879787A08BB18B13866E
S11324A0D501148E158E168E178EED85FE855A96DF
S11324B0CD90DC905B97EE24FF248081833069F417
S11324C054968D919C915597A0E0B0E0DC0199273A
S11324D08827C82AD92AEA2AFB2AD5015A961D92A6
S11324E01C925B9754961D921C92559781E08483AD
S11324F0C114D104E104F10469F142A853A864A809
S113250075A8CF01B701A601C3DE9C01009709F0AD
S113251041C08D859E850894C108D108E108F10861
S1132520FC01C286D386E486F586B301A2010E942B
S1132530930A9C01009771F02DC02115310551F5C6
S1132540D5011B968C911B9784FD7BC011FF02C0A3
S113255080FD7AC013FD1062ED85FE8542A953A962
S113256064A975A9D4015A964D935D936D937C9398
S11325705D975E96AD92BC925F9714961C93D501BD
S11325805A964D915C915B9760E070E08081833056
S113259089F402C019013CC0D50154968D919C91D7
S11325A05597A0E0B0E0DC0199278827482B592BE8
S11325B06A2B7B2BD4011E964D935D936D937C9374
S11325C05197D5015C964D915D916D917C915F978A
S11325D0D4011A964D935D936D937C931D97169633
S11325E01D921D921D921C92199756961D921D9232
S11325F01D921C925997ED93FC93119786819781B4
S113260012968D939C93139703C039E0232E312C9B
S1132610C101A496CDBFDEBFDF91CF911F91FF9082
S1132620EF90DF90CF90BF90AF909F908F907F906E
S11326306F905F904F903F902F90089528E030E086
S1132640A9CF24E030E0A6CF27E030E0A3CF2F923B
S11326503F924F925F926F927F928F929F92AF922E
S1132660BF92CF92DF92EF92FF920F931F93CF937B
S1132670DF9300D00F92CDB7DEB78B839C83E62E19
S1132680072F2A0129833A83D9011D921C920E94A3
S11326907A073C01009709F0BEC1EB81FC8184817B
S11326A087FDB9C081FFB4C14285538564857585B2
S11326B0C201A0E0B0E0840F951FA61FB71F8417C6
S11326C09507A607B70710F4442455242E2C302E62
S11326D07EC1AB81BC8116964D915D916D917C91CB
S11326E01997DB01CA019170A070B0700097A10521
S11326F0B10509F00FC1EB81FC8120813181DB013F
S1132700CA0119E0B695A795979587951A95D1F7BB
S1132710F901C280CA94C82209F047C04115510585
S113272061057105C1F4EB81FC8186859785A089DB
S1132730B1890097A105B105F9F4C90140E050E061
S1132740BA01B8D9DC01CB01EB81FC81868797877C
S1132750A08BB18B0CC0AB81BC8152964D915D9125
S11327606D917C915597C901A5D9DC01CB010097E6
S1132770A105B10509F42FC181309105A105B10569
S113278031F4EB81FC8184818068848344C08F3F71
S1132790FFEF9F07FFEFAF07FFEFBF07F9F0EB81F4
S11327A0FC81828B938BA48BB58BAB81BC818D9187
S11327B09C911197FC0142A953A964A975A9569645
S11327C00D911D912D913C91599740175107620726
S11327D0730739F40E94A306009719F0AB81BC81FA
S11327E085C0EB81FC810081118142895389648910
S11327F07589C8010E94C60ADC01CB010097A105B6
S1132800B10569F4AB81BC8114968C9114978068EE
S113281014968C93149732E0632E712CFCC04C01F7
S11328205D018C0C911CA11CB11C7201EF2CFF24C6
S1132830E694E114F10409F443C0F8018281DD2433
S113284097012C0D3D1D90E08217930718F47C012D
S1132850EC18FD08D80111968C91B101A5019401E1
S11328600E2DABD5009709F069C0AB81BC81ED9109
S1132870FC9142A953A964A975A9481959096A097F
S11328807B09C701A0E0B0E0481759076A077B0736
S113289090F4BA01762F6627770F620D731DCF016E
S11328A0C69640E052E00E947C06AB81BC81ED916B
S11328B0FC91119714828701102F0027110F68C013
S11328C0EB81FC8186819781A085B1854285538502
S11328D06485758584179507A607B707A8F0C8010E
S11328E00E94A306AB81BC81009741F014968C91A1
S11328F01497806814968C93149725C0ED91FC91DD
S113290082AA93AAA4AAB5AAEB81FC81868A978A93
S1132910A08EB18EAB81BC811696CD90DD90ED90EA
S1132920FC90199756964D915D916D917C915997B4
S11329308D919C910E94930A009749F0EB81FC8150
S113294084818068848311E0612E712C64C0C60187
S1132950917020E032E0281B390B820124153505E3
S113296008F48901AB81BC8116968D919C911797CF
S11329709170C6962D913C91820F931FB101A801CD
S11329800E947C06AB81BC81ED91FC91B1E0B483E3
S1132990200E311EA80160E070E0EB81FC8186818D
S11329A09781A085B185840F951FA61FB71F8683C5
S11329B09783A087B187A981BA818D919C91119742
S11329C0800F911F8D939C931197401A510A4114C3
S11329D0510409F07ECEEB81FC8186819781A0852C
S11329E0B1854285538564857585481759076A07FB
S11329F07B0720F482879387A487B587AB81BC814A
S1132A0014968C911497806214968C93149703C037
S1132A10B7E06B2E712CC3012496CDBFDEBFDF91CE
S1132A20CF911F910F91FF90EF90DF90CF90BF90C7
S1132A30AF909F908F907F906F905F904F903F905A
S1132A402F9008950F931F93CF93DF938C010E94CF
S1132A507A07009709F043C0D80114962C91149773
S1132A6025FF3DC05A964D915D916D917C915D9786
S1132A708D919C910E94930A009789F5F801C68D67
S1132A80D78D8B8580628B8782859385A485B58558
S1132A908C8F9D8FAE8FBF8F86859785A089B189D6
S1132AA08A8F9B8FAC8BBD8B0E94D301DC01CB0141
S1132AB08E8B9F8BA88FB98F1A8A1B8AD801149684
S1132AC08C9114978F7D14968C931497ED91FC91AF
S1132AD0119781E084838D919C910E940F07DF916F
S1132AE0CF911F910F910895CF93DF93EC01AADF4B
S1132AF0009711F418821982DF91CF910895FF9203
S1132B000F931F93CF93DF93CDB7DEB72597CDBF38
S1132B10DEBFF82E8B018AE0F81611F48DE0EFDFAA
S1132B20FB82C801BE016D5F7F4F41E050E09E0112
S1132B302F5F3F4F8CDD89819A818130910519F493
S1132B4081E090E002C08FEF9FEF2596CDBFDEBFFE
S1132B50DF91CF911F910F91FF900895EF92FF9213
S1132B600F931F93CF93DF937B018C01C0E0D0E0E0
S1132B7007C0B701C4DF2FEF8F3F920739F02196CA
S1132B80F80181918F018823A1F702C0CFEFDFEF15
S1132B90CE01DF91CF911F910F91FF90EF90089597
S1132BA02F923F924F925F926F927F928F929F9259
S1132BB0AF92BF92CF92DF92EF92FF920F931F9347
S1132BC0CF93DF93CDB7DEB76997CDBFDEBFE9A959
S1132BD0FAA983E3682E712C6C0E7D1E20E030E090
S1132BE0198A1A8A01C0F101DF018D911D01882320
S1132BF009F49BC1853261F06FA578A980DF9C013F
S1132C00BFEF8F3F9B0709F485C121E030E082C10B
S1132C101181103341F4128103E0202E312C2E0E49
S1132C203F1E01E010C01D3239F0B2E02B2E312CD2
S1132C302E0E3F1E00E007C01281A3E02A2E312C85
S1132C402E0E3F1E02E044245524F101A9019201F5
S1132C5013C0C901880F991F73E0220F331F7A959F
S1132C60E1F7280F391F812F992787FD9095280FA9
S1132C70391F205330401191812F80538A3048F3FB
S1132C801F0129019A011C3611F01C3421F404603F
S1132C90F10111911F01112309F447C1812F8156BC
S1132CA0312F8A3108F430523F3409F471C0303581
S1132CB04CF4333409F457C0343469F0323409F035
S1132CC05FC064C0353539F0383509F457C0333541
S1132CD009F056C002C02AE05CC0F30142E050E0B3
S1132CE0640E751EA080C180EA2DFC2DEE24FF2405
S1132CF003C00894E11CF11C81918823D1F701FFE2
S1132D000BC000E010E012C080E26FA578A9F7DEE6
S1132D10080F191F740102C000E010E04701089475
S1132D20811C911CE414F50478F374018A2D9C2D04
S1132D306FA578A913DF9C01080F191F0AC080E250
S1132D406FA578A9DCDE9C01080F191F0894E11C0B
S1132D50F11CE414F50498F35FEF2F3F350709F4F1
S1132D60D9C09801D7C083010E5F1F4FD3018C9146
S1132D706FA578A9C4DE9C013801CCC020E109C04C
S1132D80812F6FA578A9BBDE9C01C4C022E001C0DD
S1132D9028E002FF0CC0F30144E050E0640E751E0D
S1132DA080819181A281B381343401F515C0A301DE
S1132DB04E5F5F4F343449F4D3018D919C91AA271F
S1132DC097FDA095BA2F3A0107C0F3018081918144
S1132DD0A0E0B0E03A010AC0B7FF08C0B095A095E2
S1132DE0909581959F4FAF4FBF4F0860AE014F5FE5
S1132DF05F4F4B8B5C8BCC24DD24422F50E060E092
S1132E0070E04D8B5E8B6F8B788F01C06701BC01C6
S1132E10CD012D893E894F89588D0E947C2349011B
S1132E205A01262FD501C4012A3034F0183711F481
S1132E3027E201C027E0260F205DEB89FC8921935E
S1132E40EB8BFC8B76010894E11CF11C811491043A
S1132E50A104B10439F0F0E1EF16F104B9F6BFE0D2
S1132E60CB2ED12C802F90E003FF0DC0E1E0F0E0E9
S1132E70EC0FFD1FEE0DFF1D2DE22083A2E0EA2ED4
S1132E80F12CEC0CFD1C80FF02C020E301C020E209
S1132E908701CC24DD24E2E08E2E912C8822992215
S1132EA009C0822F6FA578A9298F29DEC80ED91EE3
S1132EB08501298D8114910441F458010894A11CC1
S1132EC0B11C0415150568F385010894E108F1089F
S1132ED0E1E0F0E0EC0FFD1FEE0DFF1D80816FA51A
S1132EE078A90DDE9C01C80ED91EE114F10469F71E
S1132EF009C080E26FA578A902DE9C01C80ED91E24
S1132F000F5F1F4F04151505A0F34FEF2F3F340734
S1132F1009F0960169897A89620F731F698B7A8B2C
S1132F207FEF2F3F370709F05ECE8FEF2F3F380733
S1132F3011F029893A89C9016996CDBFDEBFDF91B5
S1132F40CF911F910F91FF90EF90DF90CF90BF90A2
S1132F50AF909F908F907F906F905F904F903F9035
S1132F602F900895909144069F7EE0E4F6E09483C8
S1132F70E0ECF8E083838091C20887FFFCCF809166
S1132F8044068061E0E4F6E0848308956AE070E03A
S1132F900E945523609377268FEFE4DF2091C308C6
S1132FA02F3F21F0809177268823B1F781E090E0CC
S1132FB02F3F11F080E090E00895E0E4F6E0848192
S1132FC0806184838FEFCEDFE0ECF8E083810895A5
S1132FD0809144068F7EE0E4F6E084838FEFC2DFC5
S1132FE08091C30884EF91E0D1DF009721F4E5DFFD
S1132FF080E090E0089581E090E00895FF920F93BF
S11330001F93CF93DF93C82FD42F152F062FF72E9E
S113301087FF09C087E340E050E0BA01EFDF823068
S113302008F037C0CF77C9DFD3DF009789F18C2F41
S1133030806498DF8091C3088F2D94DF8091C3084A
S1133040802F90DF8091C308812F8CDF8091C3088B
S11330508D2F88DF8091C308CC2321F0C83021F064
S113306081E003C085E901C087E87CDF8091C30863
S1133070CC3021F48FEF76DF8091C308CAE08FEF64
S113308071DF8091C30887FF04C0C150C1F701C03C
S11330908FEFDF91CF911F910F91FF9008950F93C0
S11330A01F93CF93DF938C01C62F84EF91E06EDFE3
S11330B0009749F18C2F56DF8091C308CD3F01F171
S11330C0E801C050DE4FF80180814CDFF8018181B6
S11330D00E5F1F4F47DF0C171D07A9F78FEF42DF65
S11330E08091C3088FEF3EDF8091C3088FEF3ADFF2
S11330F02091C3082F7181E090E0253021F405C0B0
S113310081E090E002C080E090E0DF91CF911F91D8
S11331100F91089580E026DFE0ECF8E083810895C4
S11331200F931F93CF93DF93EC018B0184E1809382
S113313078268FEF17DF8091C3088F3F29F48091A1
S113314078268823B1F715C08E3F99F4E3DF88838E
S1133150E1DF8983229602501040C1F78FEF02DF2E
S11331608091C3088FEFFEDE8091C30881E090E078
S113317002C080E090E0DF91CF911F910F910895FC
S1133180DF92EF92FF920F931F93CF93DF9300D0C0
S11331900F92CDB7DEB7882309F0AEC08091142416
S11331A081FDA7C080914006806B8093400682E534
S11331B08093C0088091C00880688093C008809183
S11331C0C00883608093C0081AE08FEFCBDE809143
S11331D0C3081150D1F780E040E050E0BA010EDF9F
S11331E0813009F071C084E68093782688E04AEA49
S11331F051E060E070E002DF813009F03FC07E0101
S11332000894E11CF11C870184E0D82E8FEFAADE1C
S11332108091C308F80181938F01DA94B9F78B8107
S1133220813009F051C08C818A3A09F04DC08091F7
S11332307826882341F089EA40E050E060E070E4B9
S1133240DDDE8823A1F780917826882309F43CC029
S11332508AE340E050E0BA01D1DE8823A9F514E006
S11332608FEF80DE8091C308F70181937F011150B5
S1133270B9F7898186FF26C00CE027C089EA40E0BF
S113328050E0BA01BBDE823018F402E019EA02C051
S113329001E011E080917826882339F0812F40E005
S11332A050E0BA01ABDE8823A9F780917826882301
S11332B059F080E140E052E060E070E09FDE882356
S11332C019F403C004E001C000E00093792675DE20
S11332D0002379F0809114248E7F809314248091AC
S11332E0C00880688093C0088091C0088C7F809358
S11332F0C0088091142401C081E02496CDBFDEBFB4
S1133300DF91CF911F910F91FF90EF90DF9008957F
S1133310882319F480911424089581E008950F936B
S1133320CF93DF93EB01BA01A901882309F03CC0D4
S1133330002309F439C08091142480FD38C08091A1
S1133340792683FD07C099E0440F551F661F771F38
S11333509A95D1F7013059F481E150DE8823E1F4E4
S1133360CE0160E072E0DCDE0097A9F415C082E1D2
S113337045DE882389F4CE0160E072E0D1DE009757
S113338021F0C050DE4F0150B1F78CE040E050E036
S1133390BA0134DE01C000E010DE81E090E00023D9
S11333A041F480E090E005C084E090E002C083E056
S11333B090E0DF91CF910F910895CF92DF92EF9239
S11333C0FF920F93CF93DF93EB0169017A01882376
S11333D009F050C0002309F44DC08091142480FDED
S11333E04CC08091142482FD4BC08091792690E0DA
S11333F083FD07C029E0CC0CDD1CEE1CFF1C2A95C4
S1133400D1F7013061F488E1B701A601F7DD882323
S113341049F5CE016EEF43DE009709F523C08670AF
S11334209070009731F0402F50E060E070E087E941
S1133430E5DD89E1B701A601E1DD882399F4CE0138
S11334406CEF2DDE009721F0C050DE4F0150B9F72C
S113345080E090E06DEF23DE009719F003C000E0F8
S113346001C001E0AADD81E090E0002359F480E08E
S113347090E008C084E090E005C083E090E002C0E2
S113348082E090E0DF91CF910F91FF90EF90DF9079
S1133490CF900895CF92DF92EF92FF920F931F93F4
S11334A0CF93DF93CDB7DEB76097CDBFDEBF6A01A0
S11334B0882309F0A4C1653061F4FA01808188236E
S11334C029F0813009F09BC1FA01818300E010E00A
S11334D09BC18091142480FD95C16A3009F44FC1C9
S11334E06B3058F46130C1F06130A0F0633009F4FE
S11334F075C0643009F079C1F6C06C3009F446C176
S11335006C3008F441C16D3009F44BC16E3009F0E0
S11335106CC159C15DDD66C189E040E050E0BA018B
S11335206DDD882309F064C1CE01019660E170E08D
S1133530F7DD009709F45CC199819295969596956B
S113354093708885913009F590E0A0E0B0E08F7326
S11335509070A070B070DC01992788270196A11D96
S1133560B11D398520E04A85240F311DA90160E091
S113357070E0840F951FA61FB71FEAE0880F991FFC
S1133580AA1FBB1FEA95D1F7A8C0298522952695C5
S11335902695237090E0880F991F880F991F820F3A
S11335A0911D01962F8130E023703070322F222735
S11335B0330F330F820F931FA0E0B0E02E812F70E2
S11335C03B85331F3327331F230F2E5F3A85337018
S11335D0330F230F30E02950304026C00091792664
S11335E002FF2AC08DE840E050E0BA0107DD8823DD
S11335F009F0FEC08FEFB6DC8091C308CE010196BE
S113360060E170E08DDD009709F4F2C000E38FEF14
S1133610A9DC8091C3080150D1F72B8522952F7026
S113362080E190E0A0E0B0E004C0880F991FAA1FD9
S1133630BB1F2A95D2F751C089E040E050E0BA019F
S1133640DDDC882309F0D4C0CE01019660E170E08E
S113365067DD009709F4CCC08C8501FF1BC0881F6F
S11336608827881F90E001962B8530E02F733070F7
S1133670220F331F820F931F2E85229526952695A0
S1133680237030E02150304002C0880F991F2A95E2
S1133690E2F721C0482F50E043705070F3E0440F2C
S11336A0551FFA95E1F7829586958770480F511D4D
S11336B04F5F5F4F8B8590E08C77907095958795E1
S11336C0959587950196489F9001499F300D589F85
S11336D0300D1124C901A0E0B0E0F601808391838C
S11336E0A283B38388C00091792610E0C801867054
S11336F09070009709F47CC080E06BE0AE014F5FEE
S11337005F4FC8DE009709F073C089818295869562
S11337108695837019F48B8586FF6AC0F601408113
S1133720518162817381C480D580E680F78003FD76
S11337300EC039E0440F551F661F771F3A95D1F725
S1133740E9E0CC0CDD1CEE1CFF1CEA95D1F780E20D
S113375055DC882309F04CC081E2B701A6014EDC98
S1133760882309F045C086E240E050E0BA0146DC17
S1133770882309F03DC080E395E708DC33C08091DD
S11337807926FA01808337C089E001C08AE040E0ED
S113379050E0BA0133DC882359F5C60160E170E0DA
S11337A020C08AE340E050E0BA0128DC882301F518
S11337B004E08FEFD7DB8091C308F60181936F019A
S11337C00150B9F718C08DE840E050E0BA0116DCAA
S11337D0882371F48FEFC6DB8091C308C60160E4CF
S11337E070E09EDC009739F403C004E010E005C0EB
S11337F001E010E002C000E010E0DFDB05C004E0FF
S113380010E002C003E010E0C8016096CDBFDEBF47
S1133810DF91CF911F910F91FF90EF90DF90CF90A8
S113382008952F923F924F925F926F927F928F9260
S11338309F92AF92BF92CF92DF92EF92FF920F933B
S11338401F93CF93DF93782E692E8AE793E2FFD6F6
S11338508FE39CE90197F1F700C00000C72CD62C38
S1133860C0E0D0E041E0842E912CA12CB12CD501F4
S1133870C4010C2E04C0880F991FAA1FBB1F0A94F1
S1133880D2F7F60180839183A283B383C601AA276A
S113389097FDA095BA2F0496A11DB11D6C01CE0110
S11338A06AE776E254D184E993E2C6D68AE796E2DF
S11338B0CED68FE39CE90197F1F700C00000219672
S11338C0CF30D105A1F68BE993E2C1D6EFE3FCE951
S11338D03197F1F700C00000C72DD62D00E010E0AD
S11338E031E0232E312C412C512CB02E812E72012B
S11338F06101002E04C0CC0CDD1CEE1CFF1C0A94DC
S1133900D2F788819981AA81BB818C159D05AE056A
S1133910BF0549F084EC93E28FD68FE39CE90197CD
S1133920F1F700C00000C094D094E094F094C882F1
S1133930D982EA82FB82CE01AA2797FDA095BA2FED
S11339400496A11DB11DC82FD92F8B2D982D6AE780
S113395076E2FDD084E993E26FD68AE796E277D6E1
S11339608FE39CE90197F1F700C000000F5F1F4F40
S11339700430110509F0B9CF8DEC93E268D6EFE37A
S1133980FCE93197F1F700C00000072D162DC0E0C7
S1133990D0E021E0C22ED12CE12CF12CD701C601BC
S11339A00C2E04C0880F991FAA1FBB1F0A94D2F7BC
S11339B080959095A095B095F801408151816281E0
S11339C07381481759076A077B0701F5C801AA27BD
S11339D097FDA095BA2F0496A11DB11D8C01CE01AF
S11339E06AE776E2B4D084E993E226D68AE796E2DF
S11339F02ED68FE39CE90197F1F700C000002196D1
S1133A00C430D10559F680E090E002C08FEF9FEFFB
S1133A10DF91CF911F910F91FF90EF90DF90CF90A6
S1133A20BF90AF909F908F907F906F905F904F90DA
S1133A303F902F900895BF92CF92DF92EF92FF9222
S1133A400F931F93CF93DF93FC018A019B0185E5BC
S1133A50808381E090E0A0E0B0E06F01EE24D7FC29
S1133A60E094FE2CC5E5BC2E0CC0AC01BD014C0D90
S1133A705D1D6E1D7F1DEA01B882880F991FAA1F64
S1133A80BB1F80179107A207B30778F381E090E08A
S1133A90A0E0B0E004C0880F991FAA1FBB1F8017C5
S1133AA09107A207B307B8F385E5808381E090E02E
S1133AB0A0E0B0E06F01EE24D7FCE094FE2CC5E555
S1133AC01AC0AC01BD014C0D5D1D6E1D7F1DFA01B8
S1133AD041E050E060E070E004C0440F551F661FF1
S1133AE0771F4017510762077307B8F3C083880F25
S1133AF0991FAA1FBB1F80179107A207B30708F3DA
S1133B0080E090E0DF91CF911F910F91FF90EF90B3
S1133B10DF90CF90BF900895FC0180E090E011C049
S1133B20AC01440F551F63E0880F991F6A95E1F7B4
S1133B30840F951F332727FD309520533040820F83
S1133B40931F2191322F30533A3050F308950F933D
S1133B501F93CF93DF939C018B0197FF09C08DE2E4
S1133B60FB018083309521953F4FE1E0F0E002C0F6
S1133B70E0E0F0E0E801CE0FDF1F87E220313807F4
S1133B803CF0C90160E177E2A4D5605D688302C0BE
S1133B9080E388833196C90160E177E29AD59C017C
S1133BA0E801CE0FDF1F83E0283E38073CF0C9014F
S1133BB068EE73E08ED5605D688302C080E388831D
S1133BC03196C90168EE73E084D59C01E801CE0FFB
S1133BD0DF1F8436910534F064E670E07AD5605DC9
S1133BE0688302C080E388833196C90164E670E08B
S1133BF070D59C01E801CE0FDF1F8A30910534F0A7
S1133C006AE070E066D5605D688302C080E3888303
S1133C103196E00FF11FC9016AE070E05AD5805D6A
S1133C2080831182DF91CF911F910F910895882392
S1133C3039F180910006846080930006809100062B
S1133C40886080930006809100068061809300065E
S1133C508091000680628093000680910006806453
S1133C60809300068091000680688093000680910E
S1133C70200681608093200680912006826026C001
S1133C80809100068B7F8093000680910006877FD9
S1133C9080930006809100068F7E809300068091B9
S1133CA000068F7D80930006809100068F7B8093B1
S1133CB00006809100068F7780930006809120068D
S1133CC08E7F80932006809120068D7F809320062E
S1133CD00895E0E2F6E02481982F907C2F73922BD4
S1133CE09483E0E0F6E094818F73907C892B848345
S1133CF00895CF93DF93C0E0D6E09885A8853885F2
S1133D00688548858885E0E2F6E0C0852085D0E0B6
S1133D10C170D07056E0CC0FDD1F5A95E1F7881FB3
S1133D208827881F8295880F807E8C2BB0E0A8702E
S1133D30B07073E0B595A7957A95E1F7AA0FBB1F0C
S1133D408A2BE32FF0E0E071F070D4E0F595E7956D
S1133D50DA95E1F7EE0FFF1FEE0FFF1F8E2B70E0D9
S1133D606072707055E0759567955A95E1F7E3E0D8
S1133D70660F771FEA95E1F7862B50E04074507088
S1133D80F6E055954795FA95E1F7A4E0440F551FE1
S1133D90AA95E1F7842B30E0227030703595279591
S1133DA03695322F222737952795822B292F30E0FD
S1133DB0247030703595279535952795822BDF91A2
S1133DC0CF910895EF92FF920F931F93CF93DF93B8
S1133DD07C01C0E2D6E088E08D8380E28D8300E13F
S1133DE00E8381E024DF8F2D90E073DF14E01E83C7
S1133DF01D83C7016EDF1E831D830D8380E017DFE3
S1133E00DF91CF911F910F91FF90EF900895EF9262
S1133E10FF920F931F93CF93DF937C01C0E2D6E010
S1133E2088E08E8380E28D8300E10E8381E0FFDEF3
S1133E308F2D90E04EDF14E01E831D83C70149DF00
S1133E401E831D830D8380E0F2DEDF91CF911F91ED
S1133E500F91FF90EF900895EF92FF920F931F93AD
S1133E60CF93DF9380E0E3DEC0E2D6E088E08D8389
S1133E7080E18D8380E2E82EEE8294E0F92EFE82CA
S1133E80FE8237DFFD82182F00E0FE82FE8231DFE2
S1133E90FD82ED8290E0802B912BDF91CF911F91D9
S1133EA00F91FF90EF900895E0E2F6E08081806446
S1133EB0808380E48683A3EDB0E31197F1F700C01B
S1133EC000008583089587EA91E60197F1F700C021
S1133ED0000080E090E09BDF89EF90E00197F1F72C
S1133EE000C00000B9DF23E98032920709F05FC106
S1133EF089EE93E2A1D385EE90E089DF80E090E83B
S1133F0061DF80E090E083DF81E090E05BDF83EDC0
S1133F1090E30197F1F700C0000081E090E077DFC3
S1133F2080E091E04FDF82E090E071DF80E097E095
S1133F3049DF83E090E06BDF88E290E043DF84E0D8
S1133F4090E065DF80E090E03DDF88E090E05FDFB7
S1133F5082E092E037DF89E090E059DF80E090E092
S1133F6031DF8AE090E053DF80E090E02BDF8CE0EB
S1133F7090E04DDF80E090E025DF8DE090E047DFCA
S1133F8080E090E01FDF8FE090E041DF80E090E090
S1133F9019DF80E190E03BDF80E090E013DF81E116
S1133FA090E035DF80E090E00DDF82E190E02FDFEC
S1133FB080E090E007DF83E190E029DF80E090E09B
S1133FC001DF8FE493EC0197F1F700C0000080E17A
S1133FD090E01DDF80EB97E1F5DE81E190E017DFF3
S1133FE087E391E0EFDE83ED90E30197F1F700C002
S1133FF0000082E190E00BDF8CE391E0E3DE83EDEF
S113400090E30197F1F700C0000083E190E0FFDE48
S113401080E094E1D7DE89E290E0F9DE87E090E089
S1134020D1DE83ED90E30197F1F700C0000080E258
S113403090E0EDDE80E090E0C5DE81E290E0E7DE36
S113404080E090E0BFDE80E390E0E1DE87E090E096
S1134050B9DE81E390E0DBDE84E095E0B3DE82E369
S113406090E0D5DE83E097E0ADDE85E390E0CFDE3F
S113407082E090E0A7DE86E390E0C9DE87E097E087
S1134080A1DE87E390E0C3DE86E094E09BDE88E374
S113409090E0BDDE86E090E095DE89E390E0B7DE57
S11340A084E094E08FDE8CE390E0B1DE80E097E082
S11340B089DE8DE390E0ABDE88E09AE083DE80E584
S11340C090E0A5DE80E090E07DDE81E590E09FDE7B
S11340D08FEE90E077DE82E590E099DE80E090E07C
S11340E071DE83E590E093DE8FE391E06BDE80E6A2
S11340F090E08DDE80E097E265DE81E690E087DE89
S113410081E090E05FDE8AE690E081DE80E090E08E
S113411059DE80E890E07BDE80E090E053DE81E8C9
S113412090E075DE80E090E04DDE82E890E06FDEA6
S113413080E090E047DE83E890E069DE80E090E094
S113414041DE84E890E063DE80E090E03BDE85E8D9
S113415090E05DDE80E090E035DE80E990E057DEBF
S113416080E190E02FDE82E990E051DE80E090E093
S113417029DE83E990E04BDE83E090E023DE85E9ED
S113418090E045DE80E191E01DDE87E990E03FDECE
S113419080E090E017DE88E990E039DE80E090E08E
S11341A011DE87E090E033DE83E791E00BCE23E974
S11341B08532920709F06BC18AEF93E23DD283EE18
S11341C090E025DE88E090E3FDDD87EE90E01FDEE1
S11341D082E190E0F7DD8FEE90E019DE81E392E179
S11341E0F1DD80E090E013DE81E090E0EBDD83ED33
S11341F090E30197F1F700C0000081E090E007DE52
S113420080E091E0DFDD82E090E001DE80E097E095
S1134210D9DD83E090E0FBDD88E290E0D3DD84E04B
S113422090E0F5DD80E090E0CDDD88E090E0EFDD2A
S113423082E092E0C7DD89E090E0E9DD80E090E093
S1134240C1DD8AE090E0E3DD80E090E0BBDD8CE05E
S113425090E0DDDD80E090E0B5DD8DE090E0D7DD3D
S113426080E090E0AFDD8FE090E0D1DD80E090E091
S1134270A9DD80E190E0CBDD80E090E0A3DD81E189
S113428090E0C5DD87E090E09DDD82E190E0BFDD58
S113429080E090E097DD83E190E0B9DD80E090E09C
S11342A091DD8FE493EC0197F1F700C0000080E109
S11342B090E0ADDD80E996E185DD81E190E0A7DD68
S11342C087E292E07FDD83ED90E30197F1F700C090
S11342D0000082E190E09BDD8AE190E073DD83EDF4
S11342E090E30197F1F700C0000083E190E08FDDD7
S11342F080E098E167DD89E290E089DD8AE290E080
S113430061DD83ED90E30197F1F700C0000080E2E6
S113431090E07DDD80E090E055DD81E290E077DDA6
S113432080E090E04FDD80E390E071DD87E090E095
S113433049DD81E390E06BDD85E096E043DD82E3D7
S113434090E065DD86E091E03DDD85E390E05FDDB2
S113435086E092E037DD86E390E059DD88E098E07E
S113436031DD87E390E053DD87E090E02BDD88E3E7
S113437090E04DDD81E092E025DD89E390E047DDCA
S113438087E090E01FDD8CE390E041DD82E096E081
S113439019DD8DE390E03BDD88E098E013DD80E5F6
S11343A090E035DD80E090E00DDD81E590E02FDDEB
S11343B08FEE90E007DD82E590E029DD80E090E07B
S11343C001DD83E590E023DD8FE391E0FBDC80E613
S11343D090E01DDD80E097EAF5DC81E690E017DDF2
S11343E081E090E0EFDC8AE690E011DD80E090E08F
S11343F0E9DC80E890E00BDD80E090E0E3DC81E83C
S113440090E005DD80E090E0DDDC82E890E0FFDC18
S113441080E090E0D7DC83E890E0F9DC80E090E095
S1134420D1DC84E890E0F3DC80E090E0CBDC85E84C
S113443090E0EDDC80E090E0C5DC80E990E0E7DC32
S113444080E190E0BFDC82E990E0E1DC80E090E094
S1134450B9DC83E990E0DBDC83E090E0B3DC85E960
S113446090E0D5DC80E191E0ADDC87E990E0CFDC41
S113447080E090E0A7DC88E990E0C9DC80E090E08F
S1134480A1DC87E090E0C3DC83E391E09BCC08955A
S11344906F927F928F929F92AF92BF92CF92DF9250
S11344A0EF92FF920F931F93CF93DF93F22FE32F9B
S11344B0380147012091862630918726EC01821726
S11344C093070CF4E90180911724909118248B012F
S11344D0861797070CF48C01809184269091852689
S11344E05A01481759070CF45C01809115249091E6
S11344F01624EF2EFE2E8E159F050CF47C0182E50A
S113450090E085DCCE015EDC83E590E080DCC801D0
S113451059DC81E290E07BDCCE0154DC6801CC1AEA
S1134520DD0A0894C11CD11CCFEED0E08E010A191B
S11345301B09CE19DF0980E590E069DCCE0142DC7D
S113454081E590E064DCC8013DDC80E290E05FDC62
S1134550C80138DC7801EC1AFD0A0894E11CF11C4E
S113456082E290E054DC8114910489F082E08816A0
S1134570910499F40CC0C30125DC0F5F1F4F02C0E6
S113458000E010E00C151D05B0F3219602C0C0E058
S1134590D0E0CE15DF05A0F319C081E088169104A0
S11345A0A9F40FC059DC58DC809590950BDC21965A
S11345B002C0C0E0D0E0CC15DD05A0F30F5F1F4FB3
S11345C002C000E010E00E151F0598F3DF91CF91B3
S11345D01F910F91FF90EF90DF90CF90BF90AF901D
S11345E09F908F907F906F900895E0E4F6E0808133
S11345F089608083848188608483E0EAF8E08FECBA
S1134600868388E1848308958093A0088091A1081B
S113461085FD04C08091A10886FFFCCF8091A1088C
S11346208064E0EAF8E0818308958091A10887FF1F
S1134630FCCF8091A0080895CF93DF93EC0101C0D3
S1134640E3DF89918823E1F7DF91CF910895F4DFC7
S11346508BE094E2F1CFCF93DF93EC018EE094E210
S1134660EBDFCE01F4DFDF91CF910895629FD0019B
S1134670739FF001829FE00DF11D649FE00DF11D19
S1134680929FF00D839FF00D749FF00D659FF00DC8
S11346909927729FB00DE11DF91F639FB00DE11DB5
S11346A0F91FBD01CF0111240895AA1BBB1B51E1C1
S11346B007C0AA1FBB1FA617B70710F0A61BB70B8E
S11346C0881F991F5A95A9F780959095BC01CD0133
S11346D0089597FB092E07260AD077FD04D0E5DF5D
S11346E006D000201AF4709561957F4F0895F6F76F
S11346F0909581959F4F0895A1E21A2EAA1BBB1B8A
S1134700FD010DC0AA1FBB1FEE1FFF1FA217B30799
S1134710E407F50720F0A21BB30BE40BF50B661FAF
S1134720771F881F991F1A9469F760957095809573
S113473090959B01AC01BD01CF010895F894FFCF82
S1134740424F4F543A20526573657474696E672002
S11347504C43440A0D00424F4F543A20496E697449
S113476069616C697A696E67204C43440A0D00558F
S11347706E7573656420736C656570206D6F646518
S113478000496C6C6567616C20706F727400496CD1
S11347906C6567616C20706F7274206E756D005566
S11347A06E737570706F727465642053656C6563A5
S11347B07472696F6E004E6F20436F6D6D616E642D
S11347C00A0D0030313233343536373839000D0AAA
S11347D00D0A424F4F543A205374617274696E67E4
S11347E02E2E2E0D0A00424F4F543A20416E616C1A
S11347F06F67204D757820636F6E666967757265A3
S1134800642E2E2E0D0A00424F4F543A2041444349
S113481020636F6E666967757265642E2E2E0D0AAD
S113482000424F4F543A20544654204C4344206392
S11348306F6E666967757265642E2E2E0D0A0042CE
S11348404F4F543A20496E746572727570747320B8
S1134850636F6E666967757265642E2E2E0D0A008D
S1134860424F4F543A20534452414D20636F6E6679
S11348706967757265642E2E2E0D0A00424F4F54DF
S11348803A20534452414D2072656164792E2E2E94
S11348900D0A00424F4F543A20534452414D206474
S11348A061746120627573207465737420636F6D25
S11348B0706C657465642E2E2E0D0A00424F4F54A1
S11348C03A205741524E494E473A20534452414DA3
S11348D0206461746120627573207465737420664A
S11348E061696C65642E2E2E0D0A00424F4F543AB6
S11348F020534452414D2061646472657373206295
S11349007573207465737420636F6D706C65746562
S1134910642E2E2E0D0A00424F4F543A2057415216
S11349204E494E473A20534452414D2061646472CB
S1134930657373206275732074657374206661698E
S11349406C65642E2E2E0D0A00424F4F543A2053AC
S11349504420436172642074657374696E672E2EFB
S11349602E0D0A00424F4F543A20534420436172A3
S1134970643A20696E697469616C697A696E67204A
S11349806469736B2E2E2E0D0A00424F4F543A2049
S1134990534420436172643A206D6F756E74696E7E
S11349A067206469736B2E2E2E0D0A00424F4F54FC
S11349B03A20534420436172643A206F70656E69F3
S11349C06E672066696C652E2E2E0D0A0061737069
S11349D06C66632E74787400424F4F543A205344EB
S11349E020436172643A2077726974696E67206645
S11349F0696C652E2E2E0D0A006D6F6F20256400E4
S1134A00424F4F543A20534420436172643A206326
S1134A106C6F73696E672066696C652E2E2E0D0AA5
S1134A2000424F4F543A205741524E494E473A2084
S1134A304E6F205344206361726420666F756E6408
S1134A402E2E2E000A0D415350204C4643206669F9
S1134A50726D77617265202D2D2076302E310D0A0E
S1134A60003E20000A0D00222A2B2C3A3B3C3D3EFE
S1134A703F5B5D7C7F00222A2B2C2E3A3B3C3D3E43
S1134A803F5B5D7C7F00EBFE904D53444F53352ECE
S1134A9030004E4F204E414D4520202020464154A9
S1134AA03332202020004E4F204E414D45202020FF
S1134AB020464154202020202000534452414D3AA6
S1134AC02057726974696E672077616C6B696E67D1
S1134AD020317300537465703A2000534452414DA1
S1134AE03A20526561642077616C6B696E6720318E
S1134AF0732C2077726974652077616C6B696E67BB
S1134B00203073004572726F72210D0A00534452B3
S1134B10414D3A20526561642077616C6B696E6720
S1134B20203073002530347800494C493933323011
S1134B3020646574656374656400494C4939333293
S1134B4035206465746563746564000A0D004572FC
S1134B50723A200001EF003F01500454045804004D
S9030000FC
