S01800004153502D4C46432D4649524D574152452E737265639C
S1130000F9C000001CC100001AC1000018C10000A2
S113001016C1000014C1000012C1000010C100008C
S11300200EC100000CC100000AC1000008C100009C
S113003006C1000004C1000002C1000000C10000AC
S1130040FEC00000FCC00000FAC00000F8C00000C0
S1130050F6C00000F4C00000F2C00000F0C00000D0
S1130060EEC00000ECC00000EAC00000E8C00000E0
S1130070E6C00000E4C00000E2C00000E0C00000F0
S1130080DEC00000DCC00000DAC00000D8C0000000
S1130090D6C00000D4C00000D2C00000D0C0000010
S11300A0CEC00000CCC00000CAC00000C8C0000020
S11300B0C6C00000C4C00000C2C00000C0C0000030
S11300C0BEC00000BCC00000BAC00000B8C0000040
S11300D0B6C00000B4C00000B2C00000B0C0000050
S11300E0AEC00000ACC00000AAC00000A8C0000060
S11300F0A6C00000A4C00000A2C00000A0C0000070
S11301009EC000009CC000007AC10000AAC100008B
S113011096C0000094C0000092C0000090C000008F
S11301208EC000008CC000008AC0000088C000009F
S113013086C0000084C0000082C0000080C00000AF
S11301407EC000007CC000007AC0000078C00000BF
S113015076C0000074C0000072C0000070C00000CF
S11301606EC000006CC000006AC0000068C00000DF
S113017066C0000064C0000062C0000060C00000EF
S11301805EC000005CC000005AC0000058C00000FF
S113019056C0000054C0000052C0000050C000000F
S11301A04EC000004CC000004AC0000048C000001F
S11301B046C0000044C0000042C0000040C000002F
S11301C03EC000003CC000003AC0000038C000003F
S11301D036C0000034C0000032C0000030C000004F
S11301E02EC000002CC000002AC0000028C000005F
S11301F026C0000011241FBECFEFDFE3DEBFCDBF5A
S113020000E00CBF18BE19BE1ABE1BBE11E2A0E06E
S1130210B0E2E0E6F8E100E00BBF02C007900D9207
S1130220AA3BB107D9F71BBE11E2AAEBB1E201C0A8
S11302301D92AA3DB107E1F7D6D30C942E0CE0CE63
S11302402FB7F894FC01E059FF4F60958081682333
S113025060832FBF08952FB7F894FC01E059FF4F36
S11302608081682B60832FBF0895FF920F931F93A3
S1130270CF93DF93EB01813071F0813018F082303D
S113028039F403C000E514E008C008E514E005C033
S11302900CE514E002C004E514E0FFB6F894809184
S11302A0700083FF13C080E090E068E0C9DF8881BC
S11302B08C7FF8018083898181838A819B818283F9
S11302C0938380E090E068E0C6DF0AC088818C7F79
S11302D0F8018083898181838A819B8182839383CE
S11302E0FFBEDF91CF911F910F91FF9008951F934F
S11302F0CF93DF93EC011FB7F8948091700083FFD4
S113030019C080E090E068E09BDF8881E0E4F4E0DD
S11303108183898180878A8181878B819C81848381
S113032095838D819E818683978380E090E068E049
S113033092DF10C08881E0E4F4E0818389818087C2
S11303408A8181878B819C81848395838D819E8121
S1130350868397831FBFDF91CF911F910895EF92FA
S1130360FF920F931F93CF93DF93C82F8B0181309C
S1130370D1F0813018F0823079F407C00F2EF0E507
S1130380EF2EF4E0FF2EF02D14C00F2EF8E5EF2E23
S1130390F4E0FF2EF02D0DC00F2EFCE5EF2EF4E05F
S11303A0FF2EF02D06C00F2EF4E5EF2EF4E0FF2E05
S11303B0F02DDFB7F89480E090E068E041DF8FB77C
S11303C0F8949091D5219F5F9093D5218FBFF80128
S11303D08081F701808381E090E002C0880F991F3B
S11303E0CA95E2F7C091BA218C2B8093BA21DFBF62
S11303F0DF91CF911F910F91FF90EF9008951F927D
S11304000F920FB60F9208B60F9209B60F920BB661
S11304100F9211242F933F934F935F936F937F9386
S11304208F939F93AF93BF93EF93FF9380E090E2FA
S11304300E94EA0BFF91EF91BF91AF919F918F9131
S11304407F916F915F914F913F912F910F900BBED0
S11304500F9009BE0F9008BE0F900FBE0F901F9013
S113046018951F920F920FB60F9208B60F9211248F
S11304700F9008BE0F900FBE0F901F901895E0E2EA
S1130480F6E08081806480838081886080838081BD
S113049084608083808180628083808180618083A6
S11304A080E190E20E94EA0BB6D586E290E20E94D7
S11304B0EA0BC0C5882369F090E02FEF33EC49E0E4
S11304C0215030404040E1F700C000009F5F981782
S11304D0A1F7089583309105E9F08430910530F453
S11304E0009759F08230910549F50DC08630910589
S11304F0C1F08730910511F51BC0E8E4F0E080817C
S1130500817F80831FC0E8E4F0E08081817F846084
S1130510808318C0E8E4F0E08081817F8660808376
S113052011C0E8E4F0E08081817F8C6080830AC0A0
S1130530E8E4F0E080818E60808304C08FE390E281
S11305400C94FC0BE8E4F0E0808181608083889562
S1130550089561157105A9F58436B9F085361CF442
S1130560833659F505C08536C1F0863631F51DC090
S1130570E0E4F6E0808188608083E0EAF8E0DA0174
S11305808C91882309F054C00895E0E6F6E0808158
S113059088608083E0EAF9E0F2CFE0E8F6E0808169
S11305A088608083E0EAFAE0EACFE0EAF6E080815E
S11305B088608083E0EAFBE0E2CF81E590E20C947E
S11305C0FC0B6130710581F5843691F085361CF49D
S11305D0833631F505C0853699F0863609F518C09D
S11305E0E0E4F6E0808180688083E0EBF8E0C7CF48
S11305F0E0E6F6E0808180688083E0EBF9E0BFCF3D
S1130600E0E8F6E0808180688083E0EBFAE0B7CF31
S1130610E0EAF6E0808180688083E0EBFBE0AFCF26
S113062081E590E20C94FC0B8EE590E20C94FC0BBB
S1130630DA0111968083818185FD03C0818186FF63
S1130640FDCF8181806481838D91882399F70895FA
S1130650843661F0853691F08336C1F4E0E4F6E047
S11306608081806B8083E0ECF8E014C0E0E6F6E083
S11306708081806B8083E0ECF9E00CC0E0E8F6E078
S11306808081806B8083E0ECFAE004C081E590E235
S11306900C94FC0B6370606560830895DB01843601
S11306A051F0853629F0833661F4E0ECF8E005C0BA
S11306B0E0ECFAE002C0E0ECF9E08C91882329F444
S11306C0089581E590E20C94FC0B1196838382815A
S11306D088231CF082818823ECF7828180688283DE
S11306E08D91882399F708956F927F928F929F92AC
S11306F0AF92BF92CF92DF92EF92FF920F931F932C
S1130700CF93DF93CDB7DEB72A97CDBFDEBF3B01D2
S1130710E82EF92ECC24DD2480E090E0AA24BB242A
S11307200F2EFBE08F2E9924F02D8C0E9D1E33C0CE
S1130730322F30533A3060F4E1E0F0E0EC0FFD1F6B
S1130740E80FF91F20830196CC24DD24C39423C031
S1130750C114D10401F12032F1F4E1E0F0E0EC0F36
S1130760FD1FE80FF91F1082C501880F991F83012F
S1130770080F191FCE0101964AD2F8018083918394
S11307800894A11CB11CFE0131961192E815F905DB
S1130790E1F780E090E0F70121917F01222341F607
S11307A01816190674F48501000F111F060D171D84
S11307B0CE0101962CD2F801808391830894A11C68
S11307C0B11C8A2D9B2D2A96CDBFDEBFDF91CF9120
S11307D01F910F91FF90EF90DF90CF90BF90AF905B
S11307E09F908F907F906F9008958D5321E030E01B
S11307F08E3310F020E030E0822F932F089588ED9F
S113080084BF82E080935000E0E5F0E0818181FFC5
S1130810FDCF88ED84BF81E0809340008FECE0EA57
S1130820FBE08683089588ED84BF81E080935000C7
S1130830E0E5F0E0818180FFFDCF88ED84BF109278
S113084040008CE0E0EAFBE08683089588ED84BFF5
S113085084E080935000E0E5F0E0818182FFFDCFE9
S113086088ED84BF82E08093400008958130910533
S113087041F08130910520F08230910521F402C0CD
S1130880D2CFBDCFE3CF8FE690E2B6C7EF92FF920F
S11308900F931F93CF93DF93CDB7DEB76497CDBF8C
S11308A0DEBF8C01DC01FC901196EC908E2D9DDF57
S11308B0009709F4EE24FF2091F1C801BE016F5F97
S11308C07F4F12DFB1E6FB1671F1BF15A4F0E3E52B
S11308D0FE1609F46DC0EF152CF0FFE4FF1609F0C5
S11308E078C074C084E5F81609F45BC098E5F9167D
S11308F009F06FC062C0ACE6FA1609F441C0AF1546
S11309002CF0B2E6FB1609F064C02BC0E3E7FE1638
S113091009F458C0F8E7FF1609F05BC039C086E84F
S113092090E258D756C0E0ECF7E085E08683AFE369
S1130930BFE11197F1F700C000008583EFE3FFE109
S11309403197F1F700C00000E0E6F6E0808506ECA0
S113095011E2992787FD9095B8017DD1C80148D748
S113096038C0E0E0F6E080818E7F808380858170EE
S113097006EC11E290E0B8016ED1C80139D729C064
S113098022D306EC11E2B80166D1C80131D721C0E7
S113099006EC11E284E090E0B8015DD1C80128D7EB
S11309A018C069817A818E2D43E950E2D2DD11C0ED
S11309B069817A818E2D4CDE0CC08E2D63E970E244
S11309C06DDE07C089819A8185DD03C089819A81A2
S11309D04DDF6496CDBFDEBFDF91CF911F910F91A4
S11309E0FF90EF900895CF93DF93CDB7DEB7C45651
S11309F0D040CDBFDEBF03DFE0E4F0E01182BDD61E
S1130A008EE990E2E7D6E0EAF6E08FEF808390E4A7
S1130A10968380E9868380E285830FE0068396834C
S1130A2090E19583868380E8858386EB90E2D2D635
S1130A30E0ECF7E000838AE0868385E0858310920A
S1130A40600687ED90E2C6D61ADD8AE033DD8AE0DF
S1130A5031DD8AE02FDD8AE02DDD8AE02BDD80E0C8
S1130A6090E06FE371E040E050E02FEE30E000E012
S1130A7018EFEE24FF24C3D581EF90E2ABD6E0E07B
S1130A80F6E081858C7F816081878185837F8460A6
S1130A90818780898160808B8089897F808B81892F
S1130AA08160818B8189897F818B81E0828782E06B
S1130AB083878FE091E28ED68091700083FF17C008
S1130AC080E090E068E0BCDBE0EEF6E08FE0848359
S1130AD08FEF808390EF90930007809320078DE041
S1130AE08093400480E090E068E0B5DB0EC0E0EE67
S1130AF0F6E08FE084838FEF808390EF909300077C
S1130B00809320078DE0809340040BEB11E28091E9
S1130B10BB2180788F638093BB2180E090E8809331
S1130B20BD219093BE218091BC218C7F8093BC21F8
S1130B308091BF21807F8E608093BF218FEB809353
S1130B40C0218FE78093C12180E490E08093C2218B
S1130B509093C32180E991E08093C4219093C521AF
S1130B608FEB91E2C4DB83E0B8017FDB83E0B80163
S1130B70F6DB80E391E22ED6E0E4F4E0858D87FF96
S1130B80FDCF8CE491E226D683E691E223D680E879
S1130B9091E220D600E010E00F2EF3E8EF2EF1E210
S1130BA0FF2EF02D0F2EF0E8CF2EF1E2DF2EF02DE8
S1130BB009D6282F30E02D30310519F004361105FF
S1130BC089F4E1E0F0E0EC0FFD1FE00FF11F10826B
S1130BD0C70100D6CE01019659DEC601FBD500E05F
S1130BE010E0E6CF2830310539F41016110614F45C
S1130BF001501040D8D5DCCFE1E0F0E0EC0FFD1F50
S1130C00E00FF11F80830F5F1F4FCDD5D1CFFC01C3
S1130C104081842F80538A30D8F4319680E090E06C
S1130C209C01220F331F880F991F880F991F880F6B
S1130C30991F280F391F842F992787FD9095C097F6
S1130C40820F931F4191242F20532A3048F3089593
S1130C5080E090E008950F931F93CF93DF939C015E
S1130C608B0199234CF48DE2FB018083309521950F
S1130C703F4FC1E0D0E002C0C0E0D0E0F7E2203155
S1130C803F075CF0F801EC0FFD1FC90160E177E25A
S1130C90BED5605D6083219606C0F801EC0FFD1F90
S1130CA080E380832196C90160E177E2B0D59C019D
S1130CB083E0283E38075CF0F801EC0FFD1FC90102
S1130CC068EE73E0A4D5605D6083219606C0F801E8
S1130CD0EC0FFD1F80E380832196C90168EE73E069
S1130CE096D59C018436910554F0F801EC0FFD1F54
S1130CF064E670E08CD5605D6083219606C0F801DF
S1130D00EC0FFD1F80E380832196C90164E670E047
S1130D107ED59C018A30910554F0F801EC0FFD1F3B
S1130D206AE070E074D5605D6083219606C0F801C6
S1130D30EC0FFD1F80E380832196F801EC0FFD1F6B
S1130D40C9016AE070E063D5805D80831182DF9120
S1130D50CF911F910F9108958823E9F0E0E0F6E028
S1130D6080818460808380818860808380818061C9
S1130D70808380818062808380818064808380819D
S1130D8080688083E0E2F6E08081816080838081F6
S1130D90826080830895E0E0F6E080818B7F808329
S1130DA08081877F808380818F7E808380818F7D17
S1130DB0808380818F7B808380818F778083E0E252
S1130DC0F6E080818E7F808380818D7F808308958B
S1130DD0E0E2F6E09481282F207C9F73922B948389
S1130DE0E0E0F6E094818F73907C892B84830895EE
S1130DF0EF92FF920F931F93CF93DF93A0E0B6E09F
S1130E001896FC91189718962C91189718966C912F
S1130E10189718968C91189718969C91189718966D
S1130E20EC91A0E2B6E018965C91189718964C9154
S1130E3030E0287030703595279535952795359590
S1130E402795220F331F70E0607170707595679558
S1130E50759567957595679575956795660F771F71
S1130E60660F771F262BE52EFF2431E0E322FF24B3
S1130E7087010024169507950794169507950794FE
S1130E80102F002D202B082F10E0007210701595E4
S1130E900795159507951595079515950795159536
S1130EA00795E801CC0FDD1FCC0FDD1FCC0FDD1F34
S1130EB00C2F022BC92FD0E0C074D0700C2ECD2F74
S1130EC0000CCC1FDD0B000CCC1FDD1FDE01A29536
S1130ED0B295B07FBA27A07FBA27A02BEE1FEE27CA
S1130EE0EE1FE295EE0FE07EAE2B50E042705070A4
S1130EF055954795CA019695982F88279795879574
S1130F008A2BAF2FB0E0A470B070B595A795B595B6
S1130F10A7958A2BDF91CF911F910F91FF90EF90AE
S1130F200895EF92FF920F931F93CF93DF93082FAF
S1130F30F92EC0E2D6E088E08D8380E28D83EE2432
S1130F406894E4F8EE8281E007DF8F2D90E040DFC3
S1130F5014E01E831D83802F9F2D3ADF1E831D8383
S1130F60ED8280E0F9DEDF91CF911F910F91FF9028
S1130F70EF900895EF92FF920F931F93CF93DF9317
S1130F80082FF92EC0E2D6E088E08E8380E28D83BC
S1130F90EE246894E4F8EE8281E0DEDE8F2D90E0AA
S1130FA017DF14E01E831D83802F9F2D11DF1E8306
S1130FB01D83ED8280E0D0DEDF91CF911F910F91F0
S1130FC0FF90EF900895EF92FF920F931F93CF93AA
S1130FD0DF9380E0C1DEC0E2D6E088E08D8380E16B
S1130FE08D8300E20E8314E01E831E8301DF1D83C4
S1130FF0F82EEE241E831E83FBDE1D830D8390E0FA
S1131000E82AF92A8E2D9F2DDF91CF911F910F9100
S1131010FF90EF900895E0E2F6E0808180648083A1
S113102080E48683A3EDB0E31197F1F700C00000DC
S11310308583089587EA91E60197F1F700C00000DF
S113104080E090E097DF89EF90E00197F1F700C02E
S11310500000B9DF23E98032920709F05FC18BE811
S113106091E2B8D385EE90E085DF80E090E859DF27
S113107080E090E07FDF81E090E053DF83ED90E358
S11310800197F1F700C0000081E090E073DF80E099
S113109091E047DF82E090E06DDF80E097E041DFA0
S11310A083E090E067DF88E290E03BDF84E090E05B
S11310B061DF80E090E035DF88E090E05BDF82E094
S11310C092E02FDF89E090E055DF80E090E029DFB7
S11310D08AE090E04FDF80E090E023DF8CE090E056
S11310E049DF80E090E01DDF8DE090E043DF80E0A9
S11310F090E017DF8FE090E03DDF80E090E011DFCB
S113110080E190E037DF80E090E00BDF81E190E068
S113111031DF80E090E005DF82E190E02BDF80E0CA
S113112090E0FFDE83E190E025DF80E090E0F9DEEF
S11311308FE493EC0197F1F700C0000080E190E0A8
S113114019DF80EB97E1EDDE81E190E013DF87E3C7
S113115091E0E7DE83ED90E30197F1F700C0000032
S113116082E190E007DF8CE391E0DBDE83ED90E346
S11311700197F1F700C0000083E190E0FBDE80E01E
S113118094E1CFDE89E290E0F5DE87E090E0C9DE0D
S113119083ED90E30197F1F700C0000080E290E056
S11311A0E9DE80E090E0BDDE81E290E0E3DE80E015
S11311B090E0B7DE80E390E0DDDE87E090E0B1DE32
S11311C081E390E0D7DE84E095E0ABDE82E390E05B
S11311D0D1DE83E097E0A5DE85E390E0CBDE82E01C
S11311E090E09FDE86E390E0C5DE87E097E099DE3D
S11311F087E390E0BFDE86E094E093DE88E390E04E
S1131200B9DE86E090E08DDE89E390E0B3DE84E031
S113121094E087DE8CE390E0ADDE80E097E081DE51
S11312208DE390E0A7DE88E09AE07BDE80E590E045
S1131230A1DE80E090E075DE81E590E09BDE8FEE3C
S113124090E06FDE82E590E095DE80E090E069DE7C
S113125083E590E08FDE8FE391E063DE80E690E04B
S113126089DE80E097E25DDE81E690E083DE81E066
S113127090E057DE8AE690E07DDE80E090E051DE8B
S113128080E890E077DE80E090E04BDE81E890E05B
S113129071DE80E090E045DE82E890E06BDE80E085
S11312A090E03FDE83E890E065DE80E090E039DEA8
S11312B084E890E05FDE80E090E033DE85E890E053
S11312C059DE80E090E02DDE80E990E053DE80E19D
S11312D090E027DE82E990E04DDE80E090E021DEC0
S11312E083E990E047DE83E090E01BDE85E990E04F
S11312F041DE80E191E015DE87E990E03BDE80E0AD
S113130090E00FDE88E990E035DE80E090E009DED1
S113131087E090E02FDE83E791E003CE23E9853276
S1131320920709F06BC18CE991E254D283EE90E00C
S113133021DE88E090E3F5DD87EE90E01BDE82E1BC
S113134090E0EFDD8FEE90E015DE81E392E1E9DDE0
S113135080E090E00FDE81E090E0E3DD83ED90E358
S11313600197F1F700C0000081E090E003DE80E027
S113137091E0D7DD82E090E0FDDD80E097E0D1DD13
S113138083E090E0F7DD88E290E0CBDD84E090E05C
S1131390F1DD80E090E0C5DD88E090E0EBDD82E007
S11313A092E0BFDD89E090E0E5DD80E090E0B9DD2A
S11313B08AE090E0DFDD80E090E0B3DD8CE090E057
S11313C0D9DD80E090E0ADDD8DE090E0D3DD80E01C
S11313D090E0A7DD8FE090E0CDDD80E090E0A1DD3E
S11313E080E190E0C7DD80E090E09BDD81E190E06A
S11313F0C1DD87E090E095DD82E190E0BBDD80E037
S113140090E08FDD83E190E0B5DD80E090E089DD60
S11314108FE493EC0197F1F700C0000080E190E0C5
S1131420A9DD80E996E17DDD81E190E0A3DD87E23D
S113143092E077DD83ED90E30197F1F700C00000BF
S113144082E190E097DD8AE190E06BDD83ED90E34B
S11314500197F1F700C0000083E190E08BDD80E0AC
S113146098E15FDD89E290E085DD8AE290E059DD74
S113147083ED90E30197F1F700C0000080E290E073
S113148079DD80E090E04DDD81E290E073DD80E085
S113149090E047DD80E390E06DDD87E090E041DDA2
S11314A081E390E067DD85E096E03BDD82E390E058
S11314B061DD86E091E035DD85E390E05BDD86E08B
S11314C092E02FDD86E390E055DD88E098E029DDA9
S11314D087E390E04FDD87E090E023DD88E390E050
S11314E049DD81E092E01DDD89E390E043DD87E0A2
S11314F090E017DD8CE390E03DDD82E096E011DDC5
S11315008DE390E037DD88E098E00BDD80E590E046
S113151031DD80E090E005DD81E590E02BDD8FEEAC
S113152090E0FFDC82E590E025DD80E090E0F9DCEE
S113153083E590E01FDD8FE391E0F3DC80E690E04B
S113154019DD80E097EAEDDC81E690E013DD81E0CF
S113155090E0E7DC8AE690E00DDD80E090E0E1DCFD
S113156080E890E007DD80E090E0DBDC81E890E05B
S113157001DD80E090E0D5DC82E890E0FBDC80E0F7
S113158090E0CFDC83E890E0F5DC80E090E0C9DC1B
S113159084E890E0EFDC80E090E0C3DC85E890E054
S11315A0E9DC80E090E0BDDC80E990E0E3DC80E110
S11315B090E0B7DC82E990E0DDDC80E090E0B1DC33
S11315C083E990E0D7DC83E090E0ABDC85E990E050
S11315D0D1DC80E191E0A5DC87E990E0CBDC80E020
S11315E090E09FDC88E990E0C5DC80E090E099DC45
S11315F087E090E0BFDC83E391E093CC08958F9281
S11316009F92AF92BF92CF92DF92EF92FF920F938D
S11316101F93CF93DF93E22FF32F680147012091AB
S1131620D2213091D321C82FD92FC217D3070CF45C
S1131630E9018091B8219091B921062F172F8017C5
S113164091070CF48C018091D0219091D121E42E4A
S1131650F52EE816F9060CF47C018091B6219091E0
S1131660B721AE2EBF2E8A159B050CF45C0182E5D2
S113167090E080DC8C2F9D2F54DC83E590E07ADCB5
S1131680C8014FDC81E290E075DC8C2F9D2F49DC92
S11316900C1B1D0B0F5F1F4FCFEED0E0CE018E1938
S11316A09F097C01CA19DB0980E590E063DCCE0167
S11316B038DC81E590E05EDC8E2D9F2D32DC80E20B
S11316C090E058DC8E2D9F2D2CDCC7018C1B9D0BCC
S11316D05C010894A11CB11C82E290E04BDC8114F3
S11316E0910421F4A114B104A9F43AC092E089163A
S11316F09104B1F4F7CFC0E0D0E0C60112DC21962A
S1131700C017D107D0F30894E11CF11CEA14FB04C0
S113171018F026C0EE24FF240115110561F7F3CF5C
S113172081E088169104E1F4A114B10499F418C07D
S1131730C0E0D0E048DC47DC80959095F2DB219650
S1131740C017D107B8F30894E11CF11CEA14FB0498
S113175018F006C0EE24FF240115110549F7F3CF54
S1131760DF91CF911F910F91FF90EF90DF90CF9079
S1131770BF90AF909F908F90089583E0E0EBF0E0EE
S1131780848380E880938006E0E4F6E080818960C9
S11317908083848188608483E0EAF8E08FEC868328
S11317A088E184830895E0EAF8E08083818185FDFF
S11317B003C0818186FFFDCFE0EAF8E08181806487
S11317C081830895E0EAF8E081818823ECF7809131
S11317D0A0080895CF93DF93EC018881882329F032
S11317E02196E1DF89918823E1F7DF91CF91089574
S11317F0F1DF8DEA91E2EECFCF93DF93EC0180EB42
S113180091E2E8DFCE01F4DFDF91CF91089597FBF9
S1131810092E07260AD077FD04D00CD006D000206C
S11318201AF4709561957F4F0895F6F79095819518
S11318309F4F0895AA1BBB1B51E107C0AA1FBB1FE2
S1131840A617B70710F0A61BB70B881F991F5A9548
S1131850A9F780959095BC01CD010895F894FFCF28
S113186042423620696E746572727570740A0D0096
S1131870424F4F543A20526573657474696E672001
S11318804C43440A0D00424F4F543A20496E697448
S113189069616C697A696E67204C43440A0D00558E
S11318A06E7573656420736C656570206D6F646517
S11318B000496C6C6567616C20706F727400496CD0
S11318C06C6567616C20706F7274206E756D005565
S11318D06E737570706F727465642053656C6563A4
S11318E07472696F6E004E6F20436F6D6D616E642C
S11318F00A0D0030313233343536373839000D0AA9
S11319000D0A424F4F543A205374617274696E67E2
S11319102E2E2E0D0A00424F4F543A20416E616C18
S11319206F67204D757820636F6E666967757265A1
S1131930642E2E2E0D0A00424F4F543A2041444348
S113194020636F6E666967757265642E2E2E0D0AAC
S113195000424F4F543A20544654204C4344206391
S11319606F6E666967757265642E2E2E0D0A0042CD
S11319704F4F543A20496E746572727570747320B7
S1131980636F6E666967757265642E2E2E0D0A008C
S1131990424F4F543A20534452414D20636F6E6678
S11319A06967757265642E2E2E0D0A00424F4F54DE
S11319B03A20534452414D2072656164792E2E2E93
S11319C00D0A000A0D415350204C464320666972AB
S11319D06D77617265202D2D2076302E310A0D0031
S11319E03E20000A0D002530347800494C49393333
S11319F0323020646574656374656400494C493908
S1131A00333235206465746563746564000A0D00BF
S10D1A104572723A2000EF003F0116
S9030000FC
